{
  "address": "0x2a95Cb31661d3d67CcFC94bf5727ed98289358Cf",
  "abi": [
    {
      "inputs": [],
      "stateMutability": "nonpayable",
      "type": "constructor"
    },
    {
      "anonymous": false,
      "inputs": [
        {
          "indexed": true,
          "internalType": "address",
          "name": "owner",
          "type": "address"
        },
        {
          "indexed": true,
          "internalType": "address",
          "name": "approved",
          "type": "address"
        },
        {
          "indexed": true,
          "internalType": "uint256",
          "name": "tokenId",
          "type": "uint256"
        }
      ],
      "name": "Approval",
      "type": "event"
    },
    {
      "anonymous": false,
      "inputs": [
        {
          "indexed": true,
          "internalType": "address",
          "name": "owner",
          "type": "address"
        },
        {
          "indexed": true,
          "internalType": "address",
          "name": "operator",
          "type": "address"
        },
        {
          "indexed": false,
          "internalType": "bool",
          "name": "approved",
          "type": "bool"
        }
      ],
      "name": "ApprovalForAll",
      "type": "event"
    },
    {
      "anonymous": false,
      "inputs": [
        {
          "indexed": true,
          "internalType": "address",
          "name": "from",
          "type": "address"
        },
        {
          "indexed": true,
          "internalType": "address",
          "name": "to",
          "type": "address"
        },
        {
          "indexed": true,
          "internalType": "uint256",
          "name": "tokenId",
          "type": "uint256"
        }
      ],
      "name": "Transfer",
      "type": "event"
    },
    {
      "inputs": [
        {
          "internalType": "address",
          "name": "to",
          "type": "address"
        },
        {
          "internalType": "uint256",
          "name": "tokenId",
          "type": "uint256"
        }
      ],
      "name": "approve",
      "outputs": [],
      "stateMutability": "nonpayable",
      "type": "function"
    },
    {
      "inputs": [
        {
          "internalType": "address",
          "name": "owner",
          "type": "address"
        }
      ],
      "name": "balanceOf",
      "outputs": [
        {
          "internalType": "uint256",
          "name": "",
          "type": "uint256"
        }
      ],
      "stateMutability": "view",
      "type": "function"
    },
    {
      "inputs": [
        {
          "internalType": "uint256",
          "name": "tokenId",
          "type": "uint256"
        }
      ],
      "name": "burn",
      "outputs": [],
      "stateMutability": "nonpayable",
      "type": "function"
    },
    {
      "inputs": [
        {
          "internalType": "uint256",
          "name": "tokenId",
          "type": "uint256"
        }
      ],
      "name": "getApproved",
      "outputs": [
        {
          "internalType": "address",
          "name": "",
          "type": "address"
        }
      ],
      "stateMutability": "view",
      "type": "function"
    },
    {
      "inputs": [
        {
          "internalType": "address",
          "name": "owner",
          "type": "address"
        },
        {
          "internalType": "address",
          "name": "operator",
          "type": "address"
        }
      ],
      "name": "isApprovedForAll",
      "outputs": [
        {
          "internalType": "bool",
          "name": "",
          "type": "bool"
        }
      ],
      "stateMutability": "view",
      "type": "function"
    },
    {
      "inputs": [],
      "name": "name",
      "outputs": [
        {
          "internalType": "string",
          "name": "",
          "type": "string"
        }
      ],
      "stateMutability": "view",
      "type": "function"
    },
    {
      "inputs": [
        {
          "internalType": "uint256",
          "name": "tokenId",
          "type": "uint256"
        }
      ],
      "name": "ownerOf",
      "outputs": [
        {
          "internalType": "address",
          "name": "",
          "type": "address"
        }
      ],
      "stateMutability": "view",
      "type": "function"
    },
    {
      "inputs": [
        {
          "internalType": "string",
          "name": "uri",
          "type": "string"
        }
      ],
      "name": "safeMint",
      "outputs": [],
      "stateMutability": "nonpayable",
      "type": "function"
    },
    {
      "inputs": [
        {
          "internalType": "address",
          "name": "from",
          "type": "address"
        },
        {
          "internalType": "address",
          "name": "to",
          "type": "address"
        },
        {
          "internalType": "uint256",
          "name": "tokenId",
          "type": "uint256"
        }
      ],
      "name": "safeTransferFrom",
      "outputs": [],
      "stateMutability": "nonpayable",
      "type": "function"
    },
    {
      "inputs": [
        {
          "internalType": "address",
          "name": "from",
          "type": "address"
        },
        {
          "internalType": "address",
          "name": "to",
          "type": "address"
        },
        {
          "internalType": "uint256",
          "name": "tokenId",
          "type": "uint256"
        },
        {
          "internalType": "bytes",
          "name": "_data",
          "type": "bytes"
        }
      ],
      "name": "safeTransferFrom",
      "outputs": [],
      "stateMutability": "nonpayable",
      "type": "function"
    },
    {
      "inputs": [
        {
          "internalType": "address",
          "name": "operator",
          "type": "address"
        },
        {
          "internalType": "bool",
          "name": "approved",
          "type": "bool"
        }
      ],
      "name": "setApprovalForAll",
      "outputs": [],
      "stateMutability": "nonpayable",
      "type": "function"
    },
    {
      "inputs": [
        {
          "internalType": "bytes4",
          "name": "interfaceId",
          "type": "bytes4"
        }
      ],
      "name": "supportsInterface",
      "outputs": [
        {
          "internalType": "bool",
          "name": "",
          "type": "bool"
        }
      ],
      "stateMutability": "view",
      "type": "function"
    },
    {
      "inputs": [],
      "name": "symbol",
      "outputs": [
        {
          "internalType": "string",
          "name": "",
          "type": "string"
        }
      ],
      "stateMutability": "view",
      "type": "function"
    },
    {
      "inputs": [
        {
          "internalType": "uint256",
          "name": "index",
          "type": "uint256"
        }
      ],
      "name": "tokenByIndex",
      "outputs": [
        {
          "internalType": "uint256",
          "name": "",
          "type": "uint256"
        }
      ],
      "stateMutability": "view",
      "type": "function"
    },
    {
      "inputs": [
        {
          "internalType": "address",
          "name": "owner",
          "type": "address"
        },
        {
          "internalType": "uint256",
          "name": "index",
          "type": "uint256"
        }
      ],
      "name": "tokenOfOwnerByIndex",
      "outputs": [
        {
          "internalType": "uint256",
          "name": "",
          "type": "uint256"
        }
      ],
      "stateMutability": "view",
      "type": "function"
    },
    {
      "inputs": [
        {
          "internalType": "uint256",
          "name": "tokenId",
          "type": "uint256"
        }
      ],
      "name": "tokenURI",
      "outputs": [
        {
          "internalType": "string",
          "name": "",
          "type": "string"
        }
      ],
      "stateMutability": "view",
      "type": "function"
    },
    {
      "inputs": [],
      "name": "totalSupply",
      "outputs": [
        {
          "internalType": "uint256",
          "name": "",
          "type": "uint256"
        }
      ],
      "stateMutability": "view",
      "type": "function"
    },
    {
      "inputs": [
        {
          "internalType": "address",
          "name": "from",
          "type": "address"
        },
        {
          "internalType": "address",
          "name": "to",
          "type": "address"
        },
        {
          "internalType": "uint256",
          "name": "tokenId",
          "type": "uint256"
        }
      ],
      "name": "transferFrom",
      "outputs": [],
      "stateMutability": "nonpayable",
      "type": "function"
    }
  ],
  "transactionHash": "0x9f46d6e9ba107764f28461336ce6d11bb3f2608275d46b4617d9e25f46085a3b",
  "args": [],
  "numDeployments": 2,
  "solcInputHash": "8d9d73c04913f10f9bb1515f91498834",
  "bytecode": "0x60806040523480156200001157600080fd5b506040518060400160405280601081526020017f5a6f6f4e6674436f6c6c656374696f6e000000000000000000000000000000008152506040518060400160405280600481526020017f5a4e465400000000000000000000000000000000000000000000000000000000815250816000908051906020019062000096929190620000b8565b508060019080519060200190620000af929190620000b8565b505050620001cd565b828054620000c69062000168565b90600052602060002090601f016020900481019282620000ea576000855562000136565b82601f106200010557805160ff191683800117855562000136565b8280016001018555821562000136579182015b828111156200013557825182559160200191906001019062000118565b5b50905062000145919062000149565b5090565b5b80821115620001645760008160009055506001016200014a565b5090565b600060028204905060018216806200018157607f821691505b602082108114156200019857620001976200019e565b5b50919050565b7f4e487b7100000000000000000000000000000000000000000000000000000000600052602260045260246000fd5b6136c380620001dd6000396000f3fe608060405234801561001057600080fd5b50600436106101165760003560e01c80634f6ccce7116100a257806395d89b411161007157806395d89b4114610303578063a22cb46514610321578063b88d4fde1461033d578063c87b56dd14610359578063e985e9c51461038957610116565b80634f6ccce7146102575780636352211e14610287578063695850fb146102b757806370a08231146102d357610116565b806318160ddd116100e957806318160ddd146101b557806323b872dd146101d35780632f745c59146101ef57806342842e0e1461021f57806342966c681461023b57610116565b806301ffc9a71461011b57806306fdde031461014b578063081812fc14610169578063095ea7b314610199575b600080fd5b61013560048036038101906101309190612579565b6103b9565b6040516101429190612a29565b60405180910390f35b6101536103cb565b6040516101609190612a44565b60405180910390f35b610183600480360381019061017e919061260c565b61045d565b60405161019091906129c2565b60405180910390f35b6101b360048036038101906101ae919061253d565b6104e2565b005b6101bd6105fa565b6040516101ca9190612cc6565b60405180910390f35b6101ed60048036038101906101e89190612437565b610607565b005b6102096004803603810190610204919061253d565b610667565b6040516102169190612cc6565b60405180910390f35b61023960048036038101906102349190612437565b61070c565b005b6102556004803603810190610250919061260c565b61072c565b005b610271600480360381019061026c919061260c565b610788565b60405161027e9190612cc6565b60405180910390f35b6102a1600480360381019061029c919061260c565b61081f565b6040516102ae91906129c2565b60405180910390f35b6102d160048036038101906102cc91906125cb565b6108d1565b005b6102ed60048036038101906102e891906123d2565b610901565b6040516102fa9190612cc6565b60405180910390f35b61030b6109b9565b6040516103189190612a44565b60405180910390f35b61033b60048036038101906103369190612501565b610a4b565b005b61035760048036038101906103529190612486565b610a61565b005b610373600480360381019061036e919061260c565b610ac3565b6040516103809190612a44565b60405180910390f35b6103a3600480360381019061039e91906123fb565b610ad5565b6040516103b09190612a29565b60405180910390f35b60006103c482610b69565b9050919050565b6060600080546103da90612f1c565b80601f016020809104026020016040519081016040528092919081815260200182805461040690612f1c565b80156104535780601f1061042857610100808354040283529160200191610453565b820191906000526020600020905b81548152906001019060200180831161043657829003601f168201915b5050505050905090565b600061046882610be3565b6104a7576040517f08c379a000000000000000000000000000000000000000000000000000000000815260040161049e90612be6565b60405180910390fd5b6004600083815260200190815260200160002060009054906101000a900473ffffffffffffffffffffffffffffffffffffffff169050919050565b60006104ed8261081f565b90508073ffffffffffffffffffffffffffffffffffffffff168373ffffffffffffffffffffffffffffffffffffffff16141561055e576040517f08c379a000000000000000000000000000000000000000000000000000000000815260040161055590612c46565b60405180910390fd5b8073ffffffffffffffffffffffffffffffffffffffff1661057d610c4f565b73ffffffffffffffffffffffffffffffffffffffff1614806105ac57506105ab816105a6610c4f565b610ad5565b5b6105eb576040517f08c379a00000000000000000000000000000000000000000000000000000000081526004016105e290612b26565b60405180910390fd5b6105f58383610c57565b505050565b6000600880549050905090565b610618610612610c4f565b82610d10565b610657576040517f08c379a000000000000000000000000000000000000000000000000000000000815260040161064e90612c66565b60405180910390fd5b610662838383610dee565b505050565b600061067283610901565b82106106b3576040517f08c379a00000000000000000000000000000000000000000000000000000000081526004016106aa90612a66565b60405180910390fd5b600660008473ffffffffffffffffffffffffffffffffffffffff1673ffffffffffffffffffffffffffffffffffffffff168152602001908152602001600020600083815260200190815260200160002054905092915050565b61072783838360405180602001604052806000815250610a61565b505050565b61073d610737610c4f565b82610d10565b61077c576040517f08c379a000000000000000000000000000000000000000000000000000000000815260040161077390612ca6565b60405180910390fd5b6107858161104a565b50565b60006107926105fa565b82106107d3576040517f08c379a00000000000000000000000000000000000000000000000000000000081526004016107ca90612c86565b60405180910390fd5b6008828154811061080d577f4e487b7100000000000000000000000000000000000000000000000000000000600052603260045260246000fd5b90600052602060002001549050919050565b6000806002600084815260200190815260200160002060009054906101000a900473ffffffffffffffffffffffffffffffffffffffff169050600073ffffffffffffffffffffffffffffffffffffffff168173ffffffffffffffffffffffffffffffffffffffff1614156108c8576040517f08c379a00000000000000000000000000000000000000000000000000000000081526004016108bf90612b66565b60405180910390fd5b80915050919050565b60006108dd600b611056565b90506108e9600b611064565b6108f3338261107a565b6108fd8183611098565b5050565b60008073ffffffffffffffffffffffffffffffffffffffff168273ffffffffffffffffffffffffffffffffffffffff161415610972576040517f08c379a000000000000000000000000000000000000000000000000000000000815260040161096990612b46565b60405180910390fd5b600360008373ffffffffffffffffffffffffffffffffffffffff1673ffffffffffffffffffffffffffffffffffffffff168152602001908152602001600020549050919050565b6060600180546109c890612f1c565b80601f01602080910402602001604051908101604052809291908181526020018280546109f490612f1c565b8015610a415780601f10610a1657610100808354040283529160200191610a41565b820191906000526020600020905b815481529060010190602001808311610a2457829003601f168201915b5050505050905090565b610a5d610a56610c4f565b838361110c565b5050565b610a72610a6c610c4f565b83610d10565b610ab1576040517f08c379a0000000000000000000000000000000000000000000000000000000008152600401610aa890612c66565b60405180910390fd5b610abd84848484611279565b50505050565b6060610ace826112d5565b9050919050565b6000600560008473ffffffffffffffffffffffffffffffffffffffff1673ffffffffffffffffffffffffffffffffffffffff16815260200190815260200160002060008373ffffffffffffffffffffffffffffffffffffffff1673ffffffffffffffffffffffffffffffffffffffff16815260200190815260200160002060009054906101000a900460ff16905092915050565b60007f780e9d63000000000000000000000000000000000000000000000000000000007bffffffffffffffffffffffffffffffffffffffffffffffffffffffff1916827bffffffffffffffffffffffffffffffffffffffffffffffffffffffff19161480610bdc5750610bdb82611427565b5b9050919050565b60008073ffffffffffffffffffffffffffffffffffffffff166002600084815260200190815260200160002060009054906101000a900473ffffffffffffffffffffffffffffffffffffffff1673ffffffffffffffffffffffffffffffffffffffff1614159050919050565b600033905090565b816004600083815260200190815260200160002060006101000a81548173ffffffffffffffffffffffffffffffffffffffff021916908373ffffffffffffffffffffffffffffffffffffffff160217905550808273ffffffffffffffffffffffffffffffffffffffff16610cca8361081f565b73ffffffffffffffffffffffffffffffffffffffff167f8c5be1e5ebec7d5bd14f71427d1e84f3dd0314c0f7b2291e5b200ac8c7c3b92560405160405180910390a45050565b6000610d1b82610be3565b610d5a576040517f08c379a0000000000000000000000000000000000000000000000000000000008152600401610d5190612b06565b60405180910390fd5b6000610d658361081f565b90508073ffffffffffffffffffffffffffffffffffffffff168473ffffffffffffffffffffffffffffffffffffffff161480610dd457508373ffffffffffffffffffffffffffffffffffffffff16610dbc8461045d565b73ffffffffffffffffffffffffffffffffffffffff16145b80610de55750610de48185610ad5565b5b91505092915050565b8273ffffffffffffffffffffffffffffffffffffffff16610e0e8261081f565b73ffffffffffffffffffffffffffffffffffffffff1614610e64576040517f08c379a0000000000000000000000000000000000000000000000000000000008152600401610e5b90612c06565b60405180910390fd5b600073ffffffffffffffffffffffffffffffffffffffff168273ffffffffffffffffffffffffffffffffffffffff161415610ed4576040517f08c379a0000000000000000000000000000000000000000000000000000000008152600401610ecb90612ac6565b60405180910390fd5b610edf838383611509565b610eea600082610c57565b6001600360008573ffffffffffffffffffffffffffffffffffffffff1673ffffffffffffffffffffffffffffffffffffffff1681526020019081526020016000206000828254610f3a9190612e32565b925050819055506001600360008473ffffffffffffffffffffffffffffffffffffffff1673ffffffffffffffffffffffffffffffffffffffff1681526020019081526020016000206000828254610f919190612dab565b92505081905550816002600083815260200190815260200160002060006101000a81548173ffffffffffffffffffffffffffffffffffffffff021916908373ffffffffffffffffffffffffffffffffffffffff160217905550808273ffffffffffffffffffffffffffffffffffffffff168473ffffffffffffffffffffffffffffffffffffffff167fddf252ad1be2c89b69c2b068fc378daa952ba7f163c4a11628f55a4df523b3ef60405160405180910390a4505050565b61105381611519565b50565b600081600001549050919050565b6001816000016000828254019250508190555050565b61109482826040518060200160405280600081525061156c565b5050565b6110a182610be3565b6110e0576040517f08c379a00000000000000000000000000000000000000000000000000000000081526004016110d790612b86565b60405180910390fd5b80600a600084815260200190815260200160002090805190602001906111079291906121b6565b505050565b8173ffffffffffffffffffffffffffffffffffffffff168373ffffffffffffffffffffffffffffffffffffffff16141561117b576040517f08c379a000000000000000000000000000000000000000000000000000000000815260040161117290612ae6565b60405180910390fd5b80600560008573ffffffffffffffffffffffffffffffffffffffff1673ffffffffffffffffffffffffffffffffffffffff16815260200190815260200160002060008473ffffffffffffffffffffffffffffffffffffffff1673ffffffffffffffffffffffffffffffffffffffff16815260200190815260200160002060006101000a81548160ff0219169083151502179055508173ffffffffffffffffffffffffffffffffffffffff168373ffffffffffffffffffffffffffffffffffffffff167f17307eab39ab6107e8899845ad3d59bd9653f200f220920489ca2b5937696c318360405161126c9190612a29565b60405180910390a3505050565b611284848484610dee565b611290848484846115c7565b6112cf576040517f08c379a00000000000000000000000000000000000000000000000000000000081526004016112c690612a86565b60405180910390fd5b50505050565b60606112e082610be3565b61131f576040517f08c379a000000000000000000000000000000000000000000000000000000000815260040161131690612bc6565b60405180910390fd5b6000600a6000848152602001908152602001600020805461133f90612f1c565b80601f016020809104026020016040519081016040528092919081815260200182805461136b90612f1c565b80156113b85780601f1061138d576101008083540402835291602001916113b8565b820191906000526020600020905b81548152906001019060200180831161139b57829003601f168201915b5050505050905060006113c961175e565b90506000815114156113df578192505050611422565b6000825111156114145780826040516020016113fc92919061299e565b60405160208183030381529060405292505050611422565b61141d84611775565b925050505b919050565b60007f80ac58cd000000000000000000000000000000000000000000000000000000007bffffffffffffffffffffffffffffffffffffffffffffffffffffffff1916827bffffffffffffffffffffffffffffffffffffffffffffffffffffffff191614806114f257507f5b5e139f000000000000000000000000000000000000000000000000000000007bffffffffffffffffffffffffffffffffffffffffffffffffffffffff1916827bffffffffffffffffffffffffffffffffffffffffffffffffffffffff1916145b8061150257506115018261181c565b5b9050919050565b611514838383611886565b505050565b6115228161199a565b6000600a6000838152602001908152602001600020805461154290612f1c565b90501461156957600a60008281526020019081526020016000206000611568919061223c565b5b50565b6115768383611aab565b61158360008484846115c7565b6115c2576040517f08c379a00000000000000000000000000000000000000000000000000000000081526004016115b990612a86565b60405180910390fd5b505050565b60006115e88473ffffffffffffffffffffffffffffffffffffffff16611c79565b15611751578373ffffffffffffffffffffffffffffffffffffffff1663150b7a02611611610c4f565b8786866040518563ffffffff1660e01b815260040161163394939291906129dd565b602060405180830381600087803b15801561164d57600080fd5b505af192505050801561167e57506040513d601f19601f8201168201806040525081019061167b91906125a2565b60015b611701573d80600081146116ae576040519150601f19603f3d011682016040523d82523d6000602084013e6116b3565b606091505b506000815114156116f9576040517f08c379a00000000000000000000000000000000000000000000000000000000081526004016116f090612a86565b60405180910390fd5b805181602001fd5b63150b7a0260e01b7bffffffffffffffffffffffffffffffffffffffffffffffffffffffff1916817bffffffffffffffffffffffffffffffffffffffffffffffffffffffff191614915050611756565b600190505b949350505050565b606060405180602001604052806000815250905090565b606061178082610be3565b6117bf576040517f08c379a00000000000000000000000000000000000000000000000000000000081526004016117b690612c26565b60405180910390fd5b60006117c961175e565b905060008151116117e95760405180602001604052806000815250611814565b806117f384611c8c565b60405160200161180492919061299e565b6040516020818303038152906040525b915050919050565b60007f01ffc9a7000000000000000000000000000000000000000000000000000000007bffffffffffffffffffffffffffffffffffffffffffffffffffffffff1916827bffffffffffffffffffffffffffffffffffffffffffffffffffffffff1916149050919050565b611891838383611e39565b600073ffffffffffffffffffffffffffffffffffffffff168373ffffffffffffffffffffffffffffffffffffffff1614156118d4576118cf81611e3e565b611913565b8173ffffffffffffffffffffffffffffffffffffffff168373ffffffffffffffffffffffffffffffffffffffff1614611912576119118382611e87565b5b5b600073ffffffffffffffffffffffffffffffffffffffff168273ffffffffffffffffffffffffffffffffffffffff1614156119565761195181611ff4565b611995565b8273ffffffffffffffffffffffffffffffffffffffff168273ffffffffffffffffffffffffffffffffffffffff1614611994576119938282612137565b5b5b505050565b60006119a58261081f565b90506119b381600084611509565b6119be600083610c57565b6001600360008373ffffffffffffffffffffffffffffffffffffffff1673ffffffffffffffffffffffffffffffffffffffff1681526020019081526020016000206000828254611a0e9190612e32565b925050819055506002600083815260200190815260200160002060006101000a81549073ffffffffffffffffffffffffffffffffffffffff021916905581600073ffffffffffffffffffffffffffffffffffffffff168273ffffffffffffffffffffffffffffffffffffffff167fddf252ad1be2c89b69c2b068fc378daa952ba7f163c4a11628f55a4df523b3ef60405160405180910390a45050565b600073ffffffffffffffffffffffffffffffffffffffff168273ffffffffffffffffffffffffffffffffffffffff161415611b1b576040517f08c379a0000000000000000000000000000000000000000000000000000000008152600401611b1290612ba6565b60405180910390fd5b611b2481610be3565b15611b64576040517f08c379a0000000000000000000000000000000000000000000000000000000008152600401611b5b90612aa6565b60405180910390fd5b611b7060008383611509565b6001600360008473ffffffffffffffffffffffffffffffffffffffff1673ffffffffffffffffffffffffffffffffffffffff1681526020019081526020016000206000828254611bc09190612dab565b92505081905550816002600083815260200190815260200160002060006101000a81548173ffffffffffffffffffffffffffffffffffffffff021916908373ffffffffffffffffffffffffffffffffffffffff160217905550808273ffffffffffffffffffffffffffffffffffffffff16600073ffffffffffffffffffffffffffffffffffffffff167fddf252ad1be2c89b69c2b068fc378daa952ba7f163c4a11628f55a4df523b3ef60405160405180910390a45050565b600080823b905060008111915050919050565b60606000821415611cd4576040518060400160405280600181526020017f30000000000000000000000000000000000000000000000000000000000000008152509050611e34565b600082905060005b60008214611d06578080611cef90612f7f565b915050600a82611cff9190612e01565b9150611cdc565b60008167ffffffffffffffff811115611d48577f4e487b7100000000000000000000000000000000000000000000000000000000600052604160045260246000fd5b6040519080825280601f01601f191660200182016040528015611d7a5781602001600182028036833780820191505090505b5090505b60008514611e2d57600182611d939190612e32565b9150600a85611da29190612fc8565b6030611dae9190612dab565b60f81b818381518110611dea577f4e487b7100000000000000000000000000000000000000000000000000000000600052603260045260246000fd5b60200101907effffffffffffffffffffffffffffffffffffffffffffffffffffffffffffff1916908160001a905350600a85611e269190612e01565b9450611d7e565b8093505050505b919050565b505050565b6008805490506009600083815260200190815260200160002081905550600881908060018154018082558091505060019003906000526020600020016000909190919091505550565b60006001611e9484610901565b611e9e9190612e32565b9050600060076000848152602001908152602001600020549050818114611f83576000600660008673ffffffffffffffffffffffffffffffffffffffff1673ffffffffffffffffffffffffffffffffffffffff168152602001908152602001600020600084815260200190815260200160002054905080600660008773ffffffffffffffffffffffffffffffffffffffff1673ffffffffffffffffffffffffffffffffffffffff168152602001908152602001600020600084815260200190815260200160002081905550816007600083815260200190815260200160002081905550505b6007600084815260200190815260200160002060009055600660008573ffffffffffffffffffffffffffffffffffffffff1673ffffffffffffffffffffffffffffffffffffffff16815260200190815260200160002060008381526020019081526020016000206000905550505050565b600060016008805490506120089190612e32565b905060006009600084815260200190815260200160002054905060006008838154811061205e577f4e487b7100000000000000000000000000000000000000000000000000000000600052603260045260246000fd5b9060005260206000200154905080600883815481106120a6577f4e487b7100000000000000000000000000000000000000000000000000000000600052603260045260246000fd5b90600052602060002001819055508160096000838152602001908152602001600020819055506009600085815260200190815260200160002060009055600880548061211b577f4e487b7100000000000000000000000000000000000000000000000000000000600052603160045260246000fd5b6001900381819060005260206000200160009055905550505050565b600061214283610901565b905081600660008573ffffffffffffffffffffffffffffffffffffffff1673ffffffffffffffffffffffffffffffffffffffff168152602001908152602001600020600083815260200190815260200160002081905550806007600084815260200190815260200160002081905550505050565b8280546121c290612f1c565b90600052602060002090601f0160209004810192826121e4576000855561222b565b82601f106121fd57805160ff191683800117855561222b565b8280016001018555821561222b579182015b8281111561222a57825182559160200191906001019061220f565b5b509050612238919061227c565b5090565b50805461224890612f1c565b6000825580601f1061225a5750612279565b601f016020900490600052602060002090810190612278919061227c565b5b50565b5b8082111561229557600081600090555060010161227d565b5090565b60006122ac6122a784612d06565b612ce1565b9050828152602081018484840111156122c457600080fd5b6122cf848285612eda565b509392505050565b60006122ea6122e584612d37565b612ce1565b90508281526020810184848401111561230257600080fd5b61230d848285612eda565b509392505050565b60008135905061232481613631565b92915050565b60008135905061233981613648565b92915050565b60008135905061234e8161365f565b92915050565b6000815190506123638161365f565b92915050565b600082601f83011261237a57600080fd5b813561238a848260208601612299565b91505092915050565b600082601f8301126123a457600080fd5b81356123b48482602086016122d7565b91505092915050565b6000813590506123cc81613676565b92915050565b6000602082840312156123e457600080fd5b60006123f284828501612315565b91505092915050565b6000806040838503121561240e57600080fd5b600061241c85828601612315565b925050602061242d85828601612315565b9150509250929050565b60008060006060848603121561244c57600080fd5b600061245a86828701612315565b935050602061246b86828701612315565b925050604061247c868287016123bd565b9150509250925092565b6000806000806080858703121561249c57600080fd5b60006124aa87828801612315565b94505060206124bb87828801612315565b93505060406124cc878288016123bd565b925050606085013567ffffffffffffffff8111156124e957600080fd5b6124f587828801612369565b91505092959194509250565b6000806040838503121561251457600080fd5b600061252285828601612315565b92505060206125338582860161232a565b9150509250929050565b6000806040838503121561255057600080fd5b600061255e85828601612315565b925050602061256f858286016123bd565b9150509250929050565b60006020828403121561258b57600080fd5b60006125998482850161233f565b91505092915050565b6000602082840312156125b457600080fd5b60006125c284828501612354565b91505092915050565b6000602082840312156125dd57600080fd5b600082013567ffffffffffffffff8111156125f757600080fd5b61260384828501612393565b91505092915050565b60006020828403121561261e57600080fd5b600061262c848285016123bd565b91505092915050565b61263e81612e66565b82525050565b61264d81612e78565b82525050565b600061265e82612d68565b6126688185612d7e565b9350612678818560208601612ee9565b612681816130b5565b840191505092915050565b600061269782612d73565b6126a18185612d8f565b93506126b1818560208601612ee9565b6126ba816130b5565b840191505092915050565b60006126d082612d73565b6126da8185612da0565b93506126ea818560208601612ee9565b80840191505092915050565b6000612703602b83612d8f565b915061270e826130c6565b604082019050919050565b6000612726603283612d8f565b915061273182613115565b604082019050919050565b6000612749601c83612d8f565b915061275482613164565b602082019050919050565b600061276c602483612d8f565b91506127778261318d565b604082019050919050565b600061278f601983612d8f565b915061279a826131dc565b602082019050919050565b60006127b2602c83612d8f565b91506127bd82613205565b604082019050919050565b60006127d5603883612d8f565b91506127e082613254565b604082019050919050565b60006127f8602a83612d8f565b9150612803826132a3565b604082019050919050565b600061281b602983612d8f565b9150612826826132f2565b604082019050919050565b600061283e602e83612d8f565b915061284982613341565b604082019050919050565b6000612861602083612d8f565b915061286c82613390565b602082019050919050565b6000612884603183612d8f565b915061288f826133b9565b604082019050919050565b60006128a7602c83612d8f565b91506128b282613408565b604082019050919050565b60006128ca602983612d8f565b91506128d582613457565b604082019050919050565b60006128ed602f83612d8f565b91506128f8826134a6565b604082019050919050565b6000612910602183612d8f565b915061291b826134f5565b604082019050919050565b6000612933603183612d8f565b915061293e82613544565b604082019050919050565b6000612956602c83612d8f565b915061296182613593565b604082019050919050565b6000612979603083612d8f565b9150612984826135e2565b604082019050919050565b61299881612ed0565b82525050565b60006129aa82856126c5565b91506129b682846126c5565b91508190509392505050565b60006020820190506129d76000830184612635565b92915050565b60006080820190506129f26000830187612635565b6129ff6020830186612635565b612a0c604083018561298f565b8181036060830152612a1e8184612653565b905095945050505050565b6000602082019050612a3e6000830184612644565b92915050565b60006020820190508181036000830152612a5e818461268c565b905092915050565b60006020820190508181036000830152612a7f816126f6565b9050919050565b60006020820190508181036000830152612a9f81612719565b9050919050565b60006020820190508181036000830152612abf8161273c565b9050919050565b60006020820190508181036000830152612adf8161275f565b9050919050565b60006020820190508181036000830152612aff81612782565b9050919050565b60006020820190508181036000830152612b1f816127a5565b9050919050565b60006020820190508181036000830152612b3f816127c8565b9050919050565b60006020820190508181036000830152612b5f816127eb565b9050919050565b60006020820190508181036000830152612b7f8161280e565b9050919050565b60006020820190508181036000830152612b9f81612831565b9050919050565b60006020820190508181036000830152612bbf81612854565b9050919050565b60006020820190508181036000830152612bdf81612877565b9050919050565b60006020820190508181036000830152612bff8161289a565b9050919050565b60006020820190508181036000830152612c1f816128bd565b9050919050565b60006020820190508181036000830152612c3f816128e0565b9050919050565b60006020820190508181036000830152612c5f81612903565b9050919050565b60006020820190508181036000830152612c7f81612926565b9050919050565b60006020820190508181036000830152612c9f81612949565b9050919050565b60006020820190508181036000830152612cbf8161296c565b9050919050565b6000602082019050612cdb600083018461298f565b92915050565b6000612ceb612cfc565b9050612cf78282612f4e565b919050565b6000604051905090565b600067ffffffffffffffff821115612d2157612d20613086565b5b612d2a826130b5565b9050602081019050919050565b600067ffffffffffffffff821115612d5257612d51613086565b5b612d5b826130b5565b9050602081019050919050565b600081519050919050565b600081519050919050565b600082825260208201905092915050565b600082825260208201905092915050565b600081905092915050565b6000612db682612ed0565b9150612dc183612ed0565b9250827fffffffffffffffffffffffffffffffffffffffffffffffffffffffffffffffff03821115612df657612df5612ff9565b5b828201905092915050565b6000612e0c82612ed0565b9150612e1783612ed0565b925082612e2757612e26613028565b5b828204905092915050565b6000612e3d82612ed0565b9150612e4883612ed0565b925082821015612e5b57612e5a612ff9565b5b828203905092915050565b6000612e7182612eb0565b9050919050565b60008115159050919050565b60007fffffffff0000000000000000000000000000000000000000000000000000000082169050919050565b600073ffffffffffffffffffffffffffffffffffffffff82169050919050565b6000819050919050565b82818337600083830152505050565b60005b83811015612f07578082015181840152602081019050612eec565b83811115612f16576000848401525b50505050565b60006002820490506001821680612f3457607f821691505b60208210811415612f4857612f47613057565b5b50919050565b612f57826130b5565b810181811067ffffffffffffffff82111715612f7657612f75613086565b5b80604052505050565b6000612f8a82612ed0565b91507fffffffffffffffffffffffffffffffffffffffffffffffffffffffffffffffff821415612fbd57612fbc612ff9565b5b600182019050919050565b6000612fd382612ed0565b9150612fde83612ed0565b925082612fee57612fed613028565b5b828206905092915050565b7f4e487b7100000000000000000000000000000000000000000000000000000000600052601160045260246000fd5b7f4e487b7100000000000000000000000000000000000000000000000000000000600052601260045260246000fd5b7f4e487b7100000000000000000000000000000000000000000000000000000000600052602260045260246000fd5b7f4e487b7100000000000000000000000000000000000000000000000000000000600052604160045260246000fd5b6000601f19601f8301169050919050565b7f455243373231456e756d657261626c653a206f776e657220696e646578206f7560008201527f74206f6620626f756e6473000000000000000000000000000000000000000000602082015250565b7f4552433732313a207472616e7366657220746f206e6f6e20455243373231526560008201527f63656976657220696d706c656d656e7465720000000000000000000000000000602082015250565b7f4552433732313a20746f6b656e20616c7265616479206d696e74656400000000600082015250565b7f4552433732313a207472616e7366657220746f20746865207a65726f2061646460008201527f7265737300000000000000000000000000000000000000000000000000000000602082015250565b7f4552433732313a20617070726f766520746f2063616c6c657200000000000000600082015250565b7f4552433732313a206f70657261746f7220717565727920666f72206e6f6e657860008201527f697374656e7420746f6b656e0000000000000000000000000000000000000000602082015250565b7f4552433732313a20617070726f76652063616c6c6572206973206e6f74206f7760008201527f6e6572206e6f7220617070726f76656420666f7220616c6c0000000000000000602082015250565b7f4552433732313a2062616c616e636520717565727920666f7220746865207a6560008201527f726f206164647265737300000000000000000000000000000000000000000000602082015250565b7f4552433732313a206f776e657220717565727920666f72206e6f6e657869737460008201527f656e7420746f6b656e0000000000000000000000000000000000000000000000602082015250565b7f45524337323155524953746f726167653a2055524920736574206f66206e6f6e60008201527f6578697374656e7420746f6b656e000000000000000000000000000000000000602082015250565b7f4552433732313a206d696e7420746f20746865207a65726f2061646472657373600082015250565b7f45524337323155524953746f726167653a2055524920717565727920666f722060008201527f6e6f6e6578697374656e7420746f6b656e000000000000000000000000000000602082015250565b7f4552433732313a20617070726f76656420717565727920666f72206e6f6e657860008201527f697374656e7420746f6b656e0000000000000000000000000000000000000000602082015250565b7f4552433732313a207472616e73666572206f6620746f6b656e2074686174206960008201527f73206e6f74206f776e0000000000000000000000000000000000000000000000602082015250565b7f4552433732314d657461646174613a2055524920717565727920666f72206e6f60008201527f6e6578697374656e7420746f6b656e0000000000000000000000000000000000602082015250565b7f4552433732313a20617070726f76616c20746f2063757272656e74206f776e6560008201527f7200000000000000000000000000000000000000000000000000000000000000602082015250565b7f4552433732313a207472616e736665722063616c6c6572206973206e6f74206f60008201527f776e6572206e6f7220617070726f766564000000000000000000000000000000602082015250565b7f455243373231456e756d657261626c653a20676c6f62616c20696e646578206f60008201527f7574206f6620626f756e64730000000000000000000000000000000000000000602082015250565b7f4552433732314275726e61626c653a2063616c6c6572206973206e6f74206f7760008201527f6e6572206e6f7220617070726f76656400000000000000000000000000000000602082015250565b61363a81612e66565b811461364557600080fd5b50565b61365181612e78565b811461365c57600080fd5b50565b61366881612e84565b811461367357600080fd5b50565b61367f81612ed0565b811461368a57600080fd5b5056fea2646970667358221220a20e0792f26e2acbb3b5cfcab8179210df910dc46ef2523a832f126fcdba714464736f6c63430008040033",
  "devdoc": {
    "custom:security-contact": "dany.armstrong90@gmail.com",
    "kind": "dev",
    "methods": {
      "approve(address,uint256)": {
        "details": "See {IERC721-approve}."
      },
      "balanceOf(address)": {
        "details": "See {IERC721-balanceOf}."
      },
      "burn(uint256)": {
        "details": "Burns `tokenId`. See {ERC721-_burn}. Requirements: - The caller must own `tokenId` or be an approved operator."
      },
      "getApproved(uint256)": {
        "details": "See {IERC721-getApproved}."
      },
      "isApprovedForAll(address,address)": {
        "details": "See {IERC721-isApprovedForAll}."
      },
      "name()": {
        "details": "See {IERC721Metadata-name}."
      },
      "ownerOf(uint256)": {
        "details": "See {IERC721-ownerOf}."
      },
      "safeTransferFrom(address,address,uint256)": {
        "details": "See {IERC721-safeTransferFrom}."
      },
      "safeTransferFrom(address,address,uint256,bytes)": {
        "details": "See {IERC721-safeTransferFrom}."
      },
      "setApprovalForAll(address,bool)": {
        "details": "See {IERC721-setApprovalForAll}."
      },
      "symbol()": {
        "details": "See {IERC721Metadata-symbol}."
      },
      "tokenByIndex(uint256)": {
        "details": "See {IERC721Enumerable-tokenByIndex}."
      },
      "tokenOfOwnerByIndex(address,uint256)": {
        "details": "See {IERC721Enumerable-tokenOfOwnerByIndex}."
      },
      "totalSupply()": {
        "details": "See {IERC721Enumerable-totalSupply}."
      },
      "transferFrom(address,address,uint256)": {
        "details": "See {IERC721-transferFrom}."
      }
    },
    "version": 1
  },
  "userdoc": {
    "kind": "user",
    "methods": {},
    "version": 1
  },
  "storageLayout": {
    "storage": [
      {
        "astId": 25,
        "contract": "contracts/ZooNftCollection.sol:ZooNftCollection",
        "label": "_name",
        "offset": 0,
        "slot": "0",
        "type": "t_string_storage"
      },
      {
        "astId": 27,
        "contract": "contracts/ZooNftCollection.sol:ZooNftCollection",
        "label": "_symbol",
        "offset": 0,
        "slot": "1",
        "type": "t_string_storage"
      },
      {
        "astId": 31,
        "contract": "contracts/ZooNftCollection.sol:ZooNftCollection",
        "label": "_owners",
        "offset": 0,
        "slot": "2",
        "type": "t_mapping(t_uint256,t_address)"
      },
      {
        "astId": 35,
        "contract": "contracts/ZooNftCollection.sol:ZooNftCollection",
        "label": "_balances",
        "offset": 0,
        "slot": "3",
        "type": "t_mapping(t_address,t_uint256)"
      },
      {
        "astId": 39,
        "contract": "contracts/ZooNftCollection.sol:ZooNftCollection",
        "label": "_tokenApprovals",
        "offset": 0,
        "slot": "4",
        "type": "t_mapping(t_uint256,t_address)"
      },
      {
        "astId": 45,
        "contract": "contracts/ZooNftCollection.sol:ZooNftCollection",
        "label": "_operatorApprovals",
        "offset": 0,
        "slot": "5",
        "type": "t_mapping(t_address,t_mapping(t_address,t_bool))"
      },
      {
        "astId": 1009,
        "contract": "contracts/ZooNftCollection.sol:ZooNftCollection",
        "label": "_ownedTokens",
        "offset": 0,
        "slot": "6",
        "type": "t_mapping(t_address,t_mapping(t_uint256,t_uint256))"
      },
      {
        "astId": 1013,
        "contract": "contracts/ZooNftCollection.sol:ZooNftCollection",
        "label": "_ownedTokensIndex",
        "offset": 0,
        "slot": "7",
        "type": "t_mapping(t_uint256,t_uint256)"
      },
      {
        "astId": 1016,
        "contract": "contracts/ZooNftCollection.sol:ZooNftCollection",
        "label": "_allTokens",
        "offset": 0,
        "slot": "8",
        "type": "t_array(t_uint256)dyn_storage"
      },
      {
        "astId": 1020,
        "contract": "contracts/ZooNftCollection.sol:ZooNftCollection",
        "label": "_allTokensIndex",
        "offset": 0,
        "slot": "9",
        "type": "t_mapping(t_uint256,t_uint256)"
      },
      {
        "astId": 1345,
        "contract": "contracts/ZooNftCollection.sol:ZooNftCollection",
        "label": "_tokenURIs",
        "offset": 0,
        "slot": "10",
        "type": "t_mapping(t_uint256,t_string_storage)"
      },
      {
        "astId": 2741,
        "contract": "contracts/ZooNftCollection.sol:ZooNftCollection",
        "label": "_tokenIdCounter",
        "offset": 0,
        "slot": "11",
        "type": "t_struct(Counter)1843_storage"
      }
    ],
    "types": {
      "t_address": {
        "encoding": "inplace",
        "label": "address",
        "numberOfBytes": "20"
      },
      "t_array(t_uint256)dyn_storage": {
        "base": "t_uint256",
        "encoding": "dynamic_array",
        "label": "uint256[]",
        "numberOfBytes": "32"
      },
      "t_bool": {
        "encoding": "inplace",
        "label": "bool",
        "numberOfBytes": "1"
      },
      "t_mapping(t_address,t_bool)": {
        "encoding": "mapping",
        "key": "t_address",
        "label": "mapping(address => bool)",
        "numberOfBytes": "32",
        "value": "t_bool"
      },
      "t_mapping(t_address,t_mapping(t_address,t_bool))": {
        "encoding": "mapping",
        "key": "t_address",
        "label": "mapping(address => mapping(address => bool))",
        "numberOfBytes": "32",
        "value": "t_mapping(t_address,t_bool)"
      },
      "t_mapping(t_address,t_mapping(t_uint256,t_uint256))": {
        "encoding": "mapping",
        "key": "t_address",
        "label": "mapping(address => mapping(uint256 => uint256))",
        "numberOfBytes": "32",
        "value": "t_mapping(t_uint256,t_uint256)"
      },
      "t_mapping(t_address,t_uint256)": {
        "encoding": "mapping",
        "key": "t_address",
        "label": "mapping(address => uint256)",
        "numberOfBytes": "32",
        "value": "t_uint256"
      },
      "t_mapping(t_uint256,t_address)": {
        "encoding": "mapping",
        "key": "t_uint256",
        "label": "mapping(uint256 => address)",
        "numberOfBytes": "32",
        "value": "t_address"
      },
      "t_mapping(t_uint256,t_string_storage)": {
        "encoding": "mapping",
        "key": "t_uint256",
        "label": "mapping(uint256 => string)",
        "numberOfBytes": "32",
        "value": "t_string_storage"
      },
      "t_mapping(t_uint256,t_uint256)": {
        "encoding": "mapping",
        "key": "t_uint256",
        "label": "mapping(uint256 => uint256)",
        "numberOfBytes": "32",
        "value": "t_uint256"
      },
      "t_string_storage": {
        "encoding": "bytes",
        "label": "string",
        "numberOfBytes": "32"
      },
      "t_struct(Counter)1843_storage": {
        "encoding": "inplace",
        "label": "struct Counters.Counter",
        "members": [
          {
            "astId": 1842,
            "contract": "contracts/ZooNftCollection.sol:ZooNftCollection",
            "label": "_value",
            "offset": 0,
            "slot": "0",
            "type": "t_uint256"
          }
        ],
        "numberOfBytes": "32"
      },
      "t_uint256": {
        "encoding": "inplace",
        "label": "uint256",
        "numberOfBytes": "32"
      }
    }
  }
}