{
  "address": "0x3BA8E0a50C4566f66C2FD32E446ada815c1d1196",
  "abi": [
    {
      "inputs": [
        {
          "internalType": "address",
          "name": "_nftCollection",
          "type": "address"
        }
      ],
      "stateMutability": "nonpayable",
      "type": "constructor"
    },
    {
      "anonymous": false,
      "inputs": [
        {
          "indexed": true,
          "internalType": "address",
          "name": "user",
          "type": "address"
        },
        {
          "indexed": false,
          "internalType": "uint256",
          "name": "amount",
          "type": "uint256"
        },
        {
          "indexed": false,
          "internalType": "uint256",
          "name": "timestamp",
          "type": "uint256"
        }
      ],
      "name": "ClaimFunds",
      "type": "event"
    },
    {
      "anonymous": false,
      "inputs": [
        {
          "indexed": true,
          "internalType": "address",
          "name": "user",
          "type": "address"
        },
        {
          "indexed": true,
          "internalType": "uint256",
          "name": "offerId",
          "type": "uint256"
        },
        {
          "indexed": true,
          "internalType": "uint256",
          "name": "id",
          "type": "uint256"
        },
        {
          "indexed": false,
          "internalType": "uint256",
          "name": "amount",
          "type": "uint256"
        },
        {
          "indexed": false,
          "internalType": "uint256",
          "name": "timestamp",
          "type": "uint256"
        }
      ],
      "name": "Earned",
      "type": "event"
    },
    {
      "anonymous": false,
      "inputs": [
        {
          "indexed": true,
          "internalType": "address",
          "name": "user",
          "type": "address"
        },
        {
          "indexed": true,
          "internalType": "uint256",
          "name": "offerId",
          "type": "uint256"
        },
        {
          "indexed": true,
          "internalType": "uint256",
          "name": "id",
          "type": "uint256"
        },
        {
          "indexed": false,
          "internalType": "uint256",
          "name": "timestamp",
          "type": "uint256"
        }
      ],
      "name": "OfferCancelled",
      "type": "event"
    },
    {
      "anonymous": false,
      "inputs": [
        {
          "indexed": true,
          "internalType": "address",
          "name": "user",
          "type": "address"
        },
        {
          "indexed": true,
          "internalType": "uint256",
          "name": "offerId",
          "type": "uint256"
        },
        {
          "indexed": true,
          "internalType": "uint256",
          "name": "id",
          "type": "uint256"
        },
        {
          "indexed": false,
          "internalType": "uint256",
          "name": "price",
          "type": "uint256"
        },
        {
          "indexed": false,
          "internalType": "bool",
          "name": "fulfilled",
          "type": "bool"
        },
        {
          "indexed": false,
          "internalType": "bool",
          "name": "cancelled",
          "type": "bool"
        },
        {
          "indexed": false,
          "internalType": "uint256",
          "name": "timestamp",
          "type": "uint256"
        }
      ],
      "name": "OfferCreated",
      "type": "event"
    },
    {
      "anonymous": false,
      "inputs": [
        {
          "indexed": true,
          "internalType": "address",
          "name": "user",
          "type": "address"
        },
        {
          "indexed": true,
          "internalType": "uint256",
          "name": "offerId",
          "type": "uint256"
        },
        {
          "indexed": true,
          "internalType": "uint256",
          "name": "id",
          "type": "uint256"
        },
        {
          "indexed": false,
          "internalType": "uint256",
          "name": "timestamp",
          "type": "uint256"
        }
      ],
      "name": "OfferFilled",
      "type": "event"
    },
    {
      "stateMutability": "nonpayable",
      "type": "fallback"
    },
    {
      "inputs": [
        {
          "internalType": "uint256",
          "name": "_offerId",
          "type": "uint256"
        }
      ],
      "name": "cancelOffer",
      "outputs": [],
      "stateMutability": "nonpayable",
      "type": "function"
    },
    {
      "inputs": [],
      "name": "claimFunds",
      "outputs": [],
      "stateMutability": "nonpayable",
      "type": "function"
    },
    {
      "inputs": [
        {
          "internalType": "uint256",
          "name": "_offerId",
          "type": "uint256"
        }
      ],
      "name": "fillOffer",
      "outputs": [],
      "stateMutability": "payable",
      "type": "function"
    },
    {
      "inputs": [
        {
          "internalType": "uint256",
          "name": "_id",
          "type": "uint256"
        },
        {
          "internalType": "uint256",
          "name": "_price",
          "type": "uint256"
        }
      ],
      "name": "makeOffer",
      "outputs": [],
      "stateMutability": "nonpayable",
      "type": "function"
    },
    {
      "inputs": [],
      "name": "offerCount",
      "outputs": [
        {
          "internalType": "uint256",
          "name": "",
          "type": "uint256"
        }
      ],
      "stateMutability": "view",
      "type": "function"
    },
    {
      "inputs": [
        {
          "internalType": "uint256",
          "name": "",
          "type": "uint256"
        }
      ],
      "name": "offers",
      "outputs": [
        {
          "internalType": "uint256",
          "name": "offerId",
          "type": "uint256"
        },
        {
          "internalType": "uint256",
          "name": "id",
          "type": "uint256"
        },
        {
          "internalType": "address",
          "name": "user",
          "type": "address"
        },
        {
          "internalType": "uint256",
          "name": "price",
          "type": "uint256"
        },
        {
          "internalType": "bool",
          "name": "fulfilled",
          "type": "bool"
        },
        {
          "internalType": "bool",
          "name": "cancelled",
          "type": "bool"
        }
      ],
      "stateMutability": "view",
      "type": "function"
    },
    {
      "inputs": [
        {
          "internalType": "address",
          "name": "",
          "type": "address"
        }
      ],
      "name": "userFunds",
      "outputs": [
        {
          "internalType": "uint256",
          "name": "",
          "type": "uint256"
        }
      ],
      "stateMutability": "view",
      "type": "function"
    }
  ],
  "transactionHash": "0xefa4eff2f456d1a4a688e942c901c34c7b73a4dc2d3c0ac1e8532e004bc29ab9",
  "args": [
    "0x2a95Cb31661d3d67CcFC94bf5727ed98289358Cf"
  ],
  "numDeployments": 2,
  "solcInputHash": "8d9d73c04913f10f9bb1515f91498834",
  "bytecode": "0x60806040523480156200001157600080fd5b50604051620015ed380380620015ed833981810160405281019062000037919062000096565b80600360006101000a81548173ffffffffffffffffffffffffffffffffffffffff021916908373ffffffffffffffffffffffffffffffffffffffff1602179055505062000110565b6000815190506200009081620000f6565b92915050565b600060208284031215620000a957600080fd5b6000620000b9848285016200007f565b91505092915050565b6000620000cf82620000d6565b9050919050565b600073ffffffffffffffffffffffffffffffffffffffff82169050919050565b6200010181620000c2565b81146200010d57600080fd5b50565b6114cd80620001206000396000f3fe6080604052600436106100745760003560e01c806385dba8611161004e57806385dba861146101185780638a72ea6a14610134578063ac30777314610176578063ef706adf1461018d57610075565b806305b7cdd3146100875780631115c24d146100b05780638387c6e1146100db57610075565b5b34801561008157600080fd5b50600080fd5b34801561009357600080fd5b506100ae60048036038101906100a99190610cbc565b6101b6565b005b3480156100bc57600080fd5b506100c56103c1565b6040516100d29190610fb7565b60405180910390f35b3480156100e757600080fd5b5061010260048036038101906100fd9190610c6a565b6103c7565b60405161010f9190610fb7565b60405180910390f35b610132600480360381019061012d9190610c93565b6103df565b005b34801561014057600080fd5b5061015b60048036038101906101569190610c93565b6107bb565b60405161016d96959493929190611040565b60405180910390f35b34801561018257600080fd5b5061018b610831565b005b34801561019957600080fd5b506101b460048036038101906101af9190610c93565b610997565b005b600360009054906101000a900473ffffffffffffffffffffffffffffffffffffffff1673ffffffffffffffffffffffffffffffffffffffff166323b872dd3330856040518463ffffffff1660e01b815260040161021593929190610e60565b600060405180830381600087803b15801561022f57600080fd5b505af1158015610243573d6000803e3d6000fd5b50505050600080600081548092919061025b90611150565b9190505590506040518060c001604052808281526020018481526020013373ffffffffffffffffffffffffffffffffffffffff1681526020018381526020016000151581526020016000151581525060016000838152602001908152602001600020600082015181600001556020820151816001015560408201518160020160006101000a81548173ffffffffffffffffffffffffffffffffffffffff021916908373ffffffffffffffffffffffffffffffffffffffff1602179055506060820151816003015560808201518160040160006101000a81548160ff02191690831515021790555060a08201518160040160016101000a81548160ff02191690831515021790555090505082813373ffffffffffffffffffffffffffffffffffffffff167f700ef010f901f3e882b3b88d667e56b8d5f574852e1fc621ac41766713dd2bb585600080426040516103b49493929190610fd2565b60405180910390a4505050565b60005481565b60026020528060005260406000206000915090505481565b60006001600083815260200190815260200160002090508181600001541461043c576040517f08c379a000000000000000000000000000000000000000000000000000000000815260040161043390610f77565b60405180910390fd5b3373ffffffffffffffffffffffffffffffffffffffff168160020160009054906101000a900473ffffffffffffffffffffffffffffffffffffffff1673ffffffffffffffffffffffffffffffffffffffff1614156104cf576040517f08c379a00000000000000000000000000000000000000000000000000000000081526004016104c690610eb7565b60405180910390fd5b8060040160009054906101000a900460ff1615610521576040517f08c379a000000000000000000000000000000000000000000000000000000000815260040161051890610f37565b60405180910390fd5b8060040160019054906101000a900460ff1615610573576040517f08c379a000000000000000000000000000000000000000000000000000000000815260040161056a90610ed7565b60405180910390fd5b806003015434146105b9576040517f08c379a00000000000000000000000000000000000000000000000000000000081526004016105b090610f57565b60405180910390fd5b60018160040160006101000a81548160ff02191690831515021790555034600260008360020160009054906101000a900473ffffffffffffffffffffffffffffffffffffffff1673ffffffffffffffffffffffffffffffffffffffff1673ffffffffffffffffffffffffffffffffffffffff168152602001908152602001600020600082825461064991906110b2565b925050819055508060010154823373ffffffffffffffffffffffffffffffffffffffff167f16af474517d6f2a73a34d9947cd073fdd596abcf0c233b981ce76262df7591ea4260405161069c9190610fb7565b60405180910390a48060010154828260020160009054906101000a900473ffffffffffffffffffffffffffffffffffffffff1673ffffffffffffffffffffffffffffffffffffffff167f065e5ed7f69ac35752af647d0890ff767abf5d459cf3f92a37e11e0dc26683dc84600301544260405161071a929190611017565b60405180910390a4600360009054906101000a900473ffffffffffffffffffffffffffffffffffffffff1673ffffffffffffffffffffffffffffffffffffffff166323b872dd303384600101546040518463ffffffff1660e01b815260040161078593929190610e60565b600060405180830381600087803b15801561079f57600080fd5b505af11580156107b3573d6000803e3d6000fd5b505050505050565b60016020528060005260406000206000915090508060000154908060010154908060020160009054906101000a900473ffffffffffffffffffffffffffffffffffffffff16908060030154908060040160009054906101000a900460ff16908060040160019054906101000a900460ff16905086565b6000600260003373ffffffffffffffffffffffffffffffffffffffff1673ffffffffffffffffffffffffffffffffffffffff168152602001908152602001600020549050600081116108b8576040517f08c379a00000000000000000000000000000000000000000000000000000000081526004016108af90610f17565b60405180910390fd5b6000600260003373ffffffffffffffffffffffffffffffffffffffff1673ffffffffffffffffffffffffffffffffffffffff168152602001908152602001600020819055503373ffffffffffffffffffffffffffffffffffffffff167fbff9e0c77658bcafd9efc9cd67f7e7071f959ef5ee52168d2de3ad720a978f938242604051610945929190611017565b60405180910390a23373ffffffffffffffffffffffffffffffffffffffff166108fc829081150290604051600060405180830381858888f19350505050158015610993573d6000803e3d6000fd5b5050565b6000600160008381526020019081526020016000209050818160000154146109f4576040517f08c379a00000000000000000000000000000000000000000000000000000000081526004016109eb90610f77565b60405180910390fd5b3373ffffffffffffffffffffffffffffffffffffffff168160020160009054906101000a900473ffffffffffffffffffffffffffffffffffffffff1673ffffffffffffffffffffffffffffffffffffffff1614610a86576040517f08c379a0000000000000000000000000000000000000000000000000000000008152600401610a7d90610f97565b60405180910390fd5b600015158160040160009054906101000a900460ff16151514610ade576040517f08c379a0000000000000000000000000000000000000000000000000000000008152600401610ad590610ef7565b60405180910390fd5b600015158160040160019054906101000a900460ff16151514610b36576040517f08c379a0000000000000000000000000000000000000000000000000000000008152600401610b2d90610e97565b60405180910390fd5b60018160040160016101000a81548160ff0219169083151502179055508060010154823373ffffffffffffffffffffffffffffffffffffffff167f46bdaab5c90ae1382f28815108a8066db8db85c2c7d01c6946498dab63691f4342604051610b9f9190610fb7565b60405180910390a4600360009054906101000a900473ffffffffffffffffffffffffffffffffffffffff1673ffffffffffffffffffffffffffffffffffffffff166323b872dd303384600101546040518463ffffffff1660e01b8152600401610c0a93929190610e60565b600060405180830381600087803b158015610c2457600080fd5b505af1158015610c38573d6000803e3d6000fd5b505050505050565b600081359050610c4f81611469565b92915050565b600081359050610c6481611480565b92915050565b600060208284031215610c7c57600080fd5b6000610c8a84828501610c40565b91505092915050565b600060208284031215610ca557600080fd5b6000610cb384828501610c55565b91505092915050565b60008060408385031215610ccf57600080fd5b6000610cdd85828601610c55565b9250506020610cee85828601610c55565b9150509250929050565b610d0181611108565b82525050565b610d108161111a565b82525050565b6000610d236021836110a1565b9150610d2e826111c8565b604082019050919050565b6000610d466025836110a1565b9150610d5182611217565b604082019050919050565b6000610d696025836110a1565b9150610d7482611266565b604082019050919050565b6000610d8c6025836110a1565b9150610d97826112b5565b604082019050919050565b6000610daf6024836110a1565b9150610dba82611304565b604082019050919050565b6000610dd26022836110a1565b9150610ddd82611353565b604082019050919050565b6000610df5602e836110a1565b9150610e00826113a2565b604082019050919050565b6000610e186014836110a1565b9150610e23826113f1565b602082019050919050565b6000610e3b602c836110a1565b9150610e468261141a565b604082019050919050565b610e5a81611146565b82525050565b6000606082019050610e756000830186610cf8565b610e826020830185610cf8565b610e8f6040830184610e51565b949350505050565b60006020820190508181036000830152610eb081610d16565b9050919050565b60006020820190508181036000830152610ed081610d39565b9050919050565b60006020820190508181036000830152610ef081610d5c565b9050919050565b60006020820190508181036000830152610f1081610d7f565b9050919050565b60006020820190508181036000830152610f3081610da2565b9050919050565b60006020820190508181036000830152610f5081610dc5565b9050919050565b60006020820190508181036000830152610f7081610de8565b9050919050565b60006020820190508181036000830152610f9081610e0b565b9050919050565b60006020820190508181036000830152610fb081610e2e565b9050919050565b6000602082019050610fcc6000830184610e51565b92915050565b6000608082019050610fe76000830187610e51565b610ff46020830186610d07565b6110016040830185610d07565b61100e6060830184610e51565b95945050505050565b600060408201905061102c6000830185610e51565b6110396020830184610e51565b9392505050565b600060c0820190506110556000830189610e51565b6110626020830188610e51565b61106f6040830187610cf8565b61107c6060830186610e51565b6110896080830185610d07565b61109660a0830184610d07565b979650505050505050565b600082825260208201905092915050565b60006110bd82611146565b91506110c883611146565b9250827fffffffffffffffffffffffffffffffffffffffffffffffffffffffffffffffff038211156110fd576110fc611199565b5b828201905092915050565b600061111382611126565b9050919050565b60008115159050919050565b600073ffffffffffffffffffffffffffffffffffffffff82169050919050565b6000819050919050565b600061115b82611146565b91507fffffffffffffffffffffffffffffffffffffffffffffffffffffffffffffffff82141561118e5761118d611199565b5b600182019050919050565b7f4e487b7100000000000000000000000000000000000000000000000000000000600052601160045260246000fd5b7f41206f666665722063616e6e6f742062652063616e63656c6c6564207477696360008201527f6500000000000000000000000000000000000000000000000000000000000000602082015250565b7f546865206f776e6572206f6620746865206f666665722063616e6e6f7420666960008201527f6c6c206974000000000000000000000000000000000000000000000000000000602082015250565b7f412063616e63656c6c6564206f666665722063616e6e6f742062652066756c6660008201527f696c6c6564000000000000000000000000000000000000000000000000000000602082015250565b7f412066756c66696c6c6564206f666665722063616e6e6f742062652063616e6360008201527f656c6c6564000000000000000000000000000000000000000000000000000000602082015250565b7f54686973207573657220686173206e6f2066756e647320746f20626520636c6160008201527f696d656400000000000000000000000000000000000000000000000000000000602082015250565b7f416e206f666665722063616e6e6f742062652066756c66696c6c65642074776960008201527f6365000000000000000000000000000000000000000000000000000000000000602082015250565b7f5468652045544820616d6f756e742073686f756c64206d61746368207769746860008201527f20746865204e4654207072696365000000000000000000000000000000000000602082015250565b7f546865206f66666572206d757374206578697374000000000000000000000000600082015250565b7f546865206f666665722063616e206f6e6c792062652063616e63656c6c65642060008201527f627920746865206f776e65720000000000000000000000000000000000000000602082015250565b61147281611108565b811461147d57600080fd5b50565b61148981611146565b811461149457600080fd5b5056fea26469706673582212207398e781701cd6fc739dbe3a829dd6ec507b551ebd1f1ccd77aee1c2ade8756c64736f6c63430008040033",
  "devdoc": {
    "kind": "dev",
    "methods": {},
    "version": 1
  },
  "userdoc": {
    "kind": "user",
    "methods": {},
    "version": 1
  },
  "storageLayout": {
    "storage": [
      {
        "astId": 2851,
        "contract": "contracts/ZooNftMarketplace.sol:ZooNftMarketplace",
        "label": "offerCount",
        "offset": 0,
        "slot": "0",
        "type": "t_uint256"
      },
      {
        "astId": 2856,
        "contract": "contracts/ZooNftMarketplace.sol:ZooNftMarketplace",
        "label": "offers",
        "offset": 0,
        "slot": "1",
        "type": "t_mapping(t_uint256,t_struct(_Offer)2876_storage)"
      },
      {
        "astId": 2860,
        "contract": "contracts/ZooNftMarketplace.sol:ZooNftMarketplace",
        "label": "userFunds",
        "offset": 0,
        "slot": "2",
        "type": "t_mapping(t_address,t_uint256)"
      },
      {
        "astId": 2863,
        "contract": "contracts/ZooNftMarketplace.sol:ZooNftMarketplace",
        "label": "nftCollection",
        "offset": 0,
        "slot": "3",
        "type": "t_contract(ZooNftCollection)2846"
      }
    ],
    "types": {
      "t_address": {
        "encoding": "inplace",
        "label": "address",
        "numberOfBytes": "20"
      },
      "t_bool": {
        "encoding": "inplace",
        "label": "bool",
        "numberOfBytes": "1"
      },
      "t_contract(ZooNftCollection)2846": {
        "encoding": "inplace",
        "label": "contract ZooNftCollection",
        "numberOfBytes": "20"
      },
      "t_mapping(t_address,t_uint256)": {
        "encoding": "mapping",
        "key": "t_address",
        "label": "mapping(address => uint256)",
        "numberOfBytes": "32",
        "value": "t_uint256"
      },
      "t_mapping(t_uint256,t_struct(_Offer)2876_storage)": {
        "encoding": "mapping",
        "key": "t_uint256",
        "label": "mapping(uint256 => struct ZooNftMarketplace._Offer)",
        "numberOfBytes": "32",
        "value": "t_struct(_Offer)2876_storage"
      },
      "t_struct(_Offer)2876_storage": {
        "encoding": "inplace",
        "label": "struct ZooNftMarketplace._Offer",
        "members": [
          {
            "astId": 2865,
            "contract": "contracts/ZooNftMarketplace.sol:ZooNftMarketplace",
            "label": "offerId",
            "offset": 0,
            "slot": "0",
            "type": "t_uint256"
          },
          {
            "astId": 2867,
            "contract": "contracts/ZooNftMarketplace.sol:ZooNftMarketplace",
            "label": "id",
            "offset": 0,
            "slot": "1",
            "type": "t_uint256"
          },
          {
            "astId": 2869,
            "contract": "contracts/ZooNftMarketplace.sol:ZooNftMarketplace",
            "label": "user",
            "offset": 0,
            "slot": "2",
            "type": "t_address"
          },
          {
            "astId": 2871,
            "contract": "contracts/ZooNftMarketplace.sol:ZooNftMarketplace",
            "label": "price",
            "offset": 0,
            "slot": "3",
            "type": "t_uint256"
          },
          {
            "astId": 2873,
            "contract": "contracts/ZooNftMarketplace.sol:ZooNftMarketplace",
            "label": "fulfilled",
            "offset": 0,
            "slot": "4",
            "type": "t_bool"
          },
          {
            "astId": 2875,
            "contract": "contracts/ZooNftMarketplace.sol:ZooNftMarketplace",
            "label": "cancelled",
            "offset": 1,
            "slot": "4",
            "type": "t_bool"
          }
        ],
        "numberOfBytes": "160"
      },
      "t_uint256": {
        "encoding": "inplace",
        "label": "uint256",
        "numberOfBytes": "32"
      }
    }
  }
}