{
  "address": "0x9f8e251f9C6fC66113EC4E20F41A10e08bca8847",
  "abi": [
    {
      "inputs": [],
      "stateMutability": "nonpayable",
      "type": "constructor"
    },
    {
      "anonymous": false,
      "inputs": [
        {
          "indexed": true,
          "internalType": "address",
          "name": "owner",
          "type": "address"
        },
        {
          "indexed": true,
          "internalType": "address",
          "name": "approved",
          "type": "address"
        },
        {
          "indexed": true,
          "internalType": "uint256",
          "name": "tokenId",
          "type": "uint256"
        }
      ],
      "name": "Approval",
      "type": "event"
    },
    {
      "anonymous": false,
      "inputs": [
        {
          "indexed": true,
          "internalType": "address",
          "name": "owner",
          "type": "address"
        },
        {
          "indexed": true,
          "internalType": "address",
          "name": "operator",
          "type": "address"
        },
        {
          "indexed": false,
          "internalType": "bool",
          "name": "approved",
          "type": "bool"
        }
      ],
      "name": "ApprovalForAll",
      "type": "event"
    },
    {
      "anonymous": false,
      "inputs": [
        {
          "indexed": true,
          "internalType": "address",
          "name": "from",
          "type": "address"
        },
        {
          "indexed": true,
          "internalType": "address",
          "name": "to",
          "type": "address"
        },
        {
          "indexed": true,
          "internalType": "uint256",
          "name": "tokenId",
          "type": "uint256"
        }
      ],
      "name": "Transfer",
      "type": "event"
    },
    {
      "inputs": [
        {
          "internalType": "address",
          "name": "to",
          "type": "address"
        },
        {
          "internalType": "uint256",
          "name": "tokenId",
          "type": "uint256"
        }
      ],
      "name": "approve",
      "outputs": [],
      "stateMutability": "nonpayable",
      "type": "function"
    },
    {
      "inputs": [
        {
          "internalType": "address",
          "name": "owner",
          "type": "address"
        }
      ],
      "name": "balanceOf",
      "outputs": [
        {
          "internalType": "uint256",
          "name": "",
          "type": "uint256"
        }
      ],
      "stateMutability": "view",
      "type": "function"
    },
    {
      "inputs": [
        {
          "internalType": "uint256",
          "name": "tokenId",
          "type": "uint256"
        }
      ],
      "name": "getApproved",
      "outputs": [
        {
          "internalType": "address",
          "name": "",
          "type": "address"
        }
      ],
      "stateMutability": "view",
      "type": "function"
    },
    {
      "inputs": [
        {
          "internalType": "address",
          "name": "owner",
          "type": "address"
        },
        {
          "internalType": "address",
          "name": "operator",
          "type": "address"
        }
      ],
      "name": "isApprovedForAll",
      "outputs": [
        {
          "internalType": "bool",
          "name": "",
          "type": "bool"
        }
      ],
      "stateMutability": "view",
      "type": "function"
    },
    {
      "inputs": [],
      "name": "name",
      "outputs": [
        {
          "internalType": "string",
          "name": "",
          "type": "string"
        }
      ],
      "stateMutability": "view",
      "type": "function"
    },
    {
      "inputs": [
        {
          "internalType": "uint256",
          "name": "tokenId",
          "type": "uint256"
        }
      ],
      "name": "ownerOf",
      "outputs": [
        {
          "internalType": "address",
          "name": "",
          "type": "address"
        }
      ],
      "stateMutability": "view",
      "type": "function"
    },
    {
      "inputs": [
        {
          "internalType": "string",
          "name": "uri",
          "type": "string"
        }
      ],
      "name": "safeMint",
      "outputs": [],
      "stateMutability": "nonpayable",
      "type": "function"
    },
    {
      "inputs": [
        {
          "internalType": "address",
          "name": "from",
          "type": "address"
        },
        {
          "internalType": "address",
          "name": "to",
          "type": "address"
        },
        {
          "internalType": "uint256",
          "name": "tokenId",
          "type": "uint256"
        }
      ],
      "name": "safeTransferFrom",
      "outputs": [],
      "stateMutability": "nonpayable",
      "type": "function"
    },
    {
      "inputs": [
        {
          "internalType": "address",
          "name": "from",
          "type": "address"
        },
        {
          "internalType": "address",
          "name": "to",
          "type": "address"
        },
        {
          "internalType": "uint256",
          "name": "tokenId",
          "type": "uint256"
        },
        {
          "internalType": "bytes",
          "name": "_data",
          "type": "bytes"
        }
      ],
      "name": "safeTransferFrom",
      "outputs": [],
      "stateMutability": "nonpayable",
      "type": "function"
    },
    {
      "inputs": [
        {
          "internalType": "address",
          "name": "operator",
          "type": "address"
        },
        {
          "internalType": "bool",
          "name": "approved",
          "type": "bool"
        }
      ],
      "name": "setApprovalForAll",
      "outputs": [],
      "stateMutability": "nonpayable",
      "type": "function"
    },
    {
      "inputs": [
        {
          "internalType": "bytes4",
          "name": "interfaceId",
          "type": "bytes4"
        }
      ],
      "name": "supportsInterface",
      "outputs": [
        {
          "internalType": "bool",
          "name": "",
          "type": "bool"
        }
      ],
      "stateMutability": "view",
      "type": "function"
    },
    {
      "inputs": [],
      "name": "symbol",
      "outputs": [
        {
          "internalType": "string",
          "name": "",
          "type": "string"
        }
      ],
      "stateMutability": "view",
      "type": "function"
    },
    {
      "inputs": [
        {
          "internalType": "uint256",
          "name": "index",
          "type": "uint256"
        }
      ],
      "name": "tokenByIndex",
      "outputs": [
        {
          "internalType": "uint256",
          "name": "",
          "type": "uint256"
        }
      ],
      "stateMutability": "view",
      "type": "function"
    },
    {
      "inputs": [
        {
          "internalType": "address",
          "name": "owner",
          "type": "address"
        },
        {
          "internalType": "uint256",
          "name": "index",
          "type": "uint256"
        }
      ],
      "name": "tokenOfOwnerByIndex",
      "outputs": [
        {
          "internalType": "uint256",
          "name": "",
          "type": "uint256"
        }
      ],
      "stateMutability": "view",
      "type": "function"
    },
    {
      "inputs": [
        {
          "internalType": "uint256",
          "name": "tokenId",
          "type": "uint256"
        }
      ],
      "name": "tokenURI",
      "outputs": [
        {
          "internalType": "string",
          "name": "",
          "type": "string"
        }
      ],
      "stateMutability": "view",
      "type": "function"
    },
    {
      "inputs": [],
      "name": "totalSupply",
      "outputs": [
        {
          "internalType": "uint256",
          "name": "",
          "type": "uint256"
        }
      ],
      "stateMutability": "view",
      "type": "function"
    },
    {
      "inputs": [
        {
          "internalType": "address",
          "name": "from",
          "type": "address"
        },
        {
          "internalType": "address",
          "name": "to",
          "type": "address"
        },
        {
          "internalType": "uint256",
          "name": "tokenId",
          "type": "uint256"
        }
      ],
      "name": "transferFrom",
      "outputs": [],
      "stateMutability": "nonpayable",
      "type": "function"
    }
  ],
  "transactionHash": "0x4d2d9b64464d16fe94f4c769a35908ad6e2a4efc04b038d24234321088d0eadf",
  "args": [],
  "numDeployments": 1,
  "solcInputHash": "c3f1f7dd83a353f204bee0c1bee3260f",
  "bytecode": "0x60806040523480156200001157600080fd5b506040518060400160405280601081526020017f5a6f6f4e6674436f6c6c656374696f6e000000000000000000000000000000008152506040518060400160405280600481526020017f5a4e465400000000000000000000000000000000000000000000000000000000815250816000908051906020019062000096929190620000b8565b508060019080519060200190620000af929190620000b8565b505050620001cd565b828054620000c69062000168565b90600052602060002090601f016020900481019282620000ea576000855562000136565b82601f106200010557805160ff191683800117855562000136565b8280016001018555821562000136579182015b828111156200013557825182559160200191906001019062000118565b5b50905062000145919062000149565b5090565b5b80821115620001645760008160009055506001016200014a565b5090565b600060028204905060018216806200018157607f821691505b602082108114156200019857620001976200019e565b5b50919050565b7f4e487b7100000000000000000000000000000000000000000000000000000000600052602260045260246000fd5b6133fe80620001dd6000396000f3fe608060405234801561001057600080fd5b506004361061010b5760003560e01c80634f6ccce7116100a257806395d89b411161007157806395d89b41146102dc578063a22cb465146102fa578063b88d4fde14610316578063c87b56dd14610332578063e985e9c5146103625761010b565b80634f6ccce7146102305780636352211e14610260578063695850fb1461029057806370a08231146102ac5761010b565b806318160ddd116100de57806318160ddd146101aa57806323b872dd146101c85780632f745c59146101e457806342842e0e146102145761010b565b806301ffc9a71461011057806306fdde0314610140578063081812fc1461015e578063095ea7b31461018e575b600080fd5b61012a60048036038101906101259190612346565b610392565b60405161013791906127d3565b60405180910390f35b6101486103a4565b60405161015591906127ee565b60405180910390f35b610178600480360381019061017391906123d9565b610436565b604051610185919061276c565b60405180910390f35b6101a860048036038101906101a3919061230a565b6104bb565b005b6101b26105d3565b6040516101bf9190612a50565b60405180910390f35b6101e260048036038101906101dd9190612204565b6105e0565b005b6101fe60048036038101906101f9919061230a565b610640565b60405161020b9190612a50565b60405180910390f35b61022e60048036038101906102299190612204565b6106e5565b005b61024a600480360381019061024591906123d9565b610705565b6040516102579190612a50565b60405180910390f35b61027a600480360381019061027591906123d9565b61079c565b604051610287919061276c565b60405180910390f35b6102aa60048036038101906102a59190612398565b61084e565b005b6102c660048036038101906102c1919061219f565b61087e565b6040516102d39190612a50565b60405180910390f35b6102e4610936565b6040516102f191906127ee565b60405180910390f35b610314600480360381019061030f91906122ce565b6109c8565b005b610330600480360381019061032b9190612253565b6109de565b005b61034c600480360381019061034791906123d9565b610a40565b60405161035991906127ee565b60405180910390f35b61037c600480360381019061037791906121c8565b610a52565b60405161038991906127d3565b60405180910390f35b600061039d82610ae6565b9050919050565b6060600080546103b390612ca6565b80601f01602080910402602001604051908101604052809291908181526020018280546103df90612ca6565b801561042c5780601f106104015761010080835404028352916020019161042c565b820191906000526020600020905b81548152906001019060200180831161040f57829003601f168201915b5050505050905090565b600061044182610b60565b610480576040517f08c379a000000000000000000000000000000000000000000000000000000000815260040161047790612990565b60405180910390fd5b6004600083815260200190815260200160002060009054906101000a900473ffffffffffffffffffffffffffffffffffffffff169050919050565b60006104c68261079c565b90508073ffffffffffffffffffffffffffffffffffffffff168373ffffffffffffffffffffffffffffffffffffffff161415610537576040517f08c379a000000000000000000000000000000000000000000000000000000000815260040161052e906129f0565b60405180910390fd5b8073ffffffffffffffffffffffffffffffffffffffff16610556610bcc565b73ffffffffffffffffffffffffffffffffffffffff16148061058557506105848161057f610bcc565b610a52565b5b6105c4576040517f08c379a00000000000000000000000000000000000000000000000000000000081526004016105bb906128d0565b60405180910390fd5b6105ce8383610bd4565b505050565b6000600880549050905090565b6105f16105eb610bcc565b82610c8d565b610630576040517f08c379a000000000000000000000000000000000000000000000000000000000815260040161062790612a10565b60405180910390fd5b61063b838383610d6b565b505050565b600061064b8361087e565b821061068c576040517f08c379a000000000000000000000000000000000000000000000000000000000815260040161068390612810565b60405180910390fd5b600660008473ffffffffffffffffffffffffffffffffffffffff1673ffffffffffffffffffffffffffffffffffffffff168152602001908152602001600020600083815260200190815260200160002054905092915050565b610700838383604051806020016040528060008152506109de565b505050565b600061070f6105d3565b8210610750576040517f08c379a000000000000000000000000000000000000000000000000000000000815260040161074790612a30565b60405180910390fd5b6008828154811061078a577f4e487b7100000000000000000000000000000000000000000000000000000000600052603260045260246000fd5b90600052602060002001549050919050565b6000806002600084815260200190815260200160002060009054906101000a900473ffffffffffffffffffffffffffffffffffffffff169050600073ffffffffffffffffffffffffffffffffffffffff168173ffffffffffffffffffffffffffffffffffffffff161415610845576040517f08c379a000000000000000000000000000000000000000000000000000000000815260040161083c90612910565b60405180910390fd5b80915050919050565b600061085a600b610fc7565b9050610866600b610fd5565b6108703382610feb565b61087a8183611009565b5050565b60008073ffffffffffffffffffffffffffffffffffffffff168273ffffffffffffffffffffffffffffffffffffffff1614156108ef576040517f08c379a00000000000000000000000000000000000000000000000000000000081526004016108e6906128f0565b60405180910390fd5b600360008373ffffffffffffffffffffffffffffffffffffffff1673ffffffffffffffffffffffffffffffffffffffff168152602001908152602001600020549050919050565b60606001805461094590612ca6565b80601f016020809104026020016040519081016040528092919081815260200182805461097190612ca6565b80156109be5780601f10610993576101008083540402835291602001916109be565b820191906000526020600020905b8154815290600101906020018083116109a157829003601f168201915b5050505050905090565b6109da6109d3610bcc565b838361107d565b5050565b6109ef6109e9610bcc565b83610c8d565b610a2e576040517f08c379a0000000000000000000000000000000000000000000000000000000008152600401610a2590612a10565b60405180910390fd5b610a3a848484846111ea565b50505050565b6060610a4b82611246565b9050919050565b6000600560008473ffffffffffffffffffffffffffffffffffffffff1673ffffffffffffffffffffffffffffffffffffffff16815260200190815260200160002060008373ffffffffffffffffffffffffffffffffffffffff1673ffffffffffffffffffffffffffffffffffffffff16815260200190815260200160002060009054906101000a900460ff16905092915050565b60007f780e9d63000000000000000000000000000000000000000000000000000000007bffffffffffffffffffffffffffffffffffffffffffffffffffffffff1916827bffffffffffffffffffffffffffffffffffffffffffffffffffffffff19161480610b595750610b5882611398565b5b9050919050565b60008073ffffffffffffffffffffffffffffffffffffffff166002600084815260200190815260200160002060009054906101000a900473ffffffffffffffffffffffffffffffffffffffff1673ffffffffffffffffffffffffffffffffffffffff1614159050919050565b600033905090565b816004600083815260200190815260200160002060006101000a81548173ffffffffffffffffffffffffffffffffffffffff021916908373ffffffffffffffffffffffffffffffffffffffff160217905550808273ffffffffffffffffffffffffffffffffffffffff16610c478361079c565b73ffffffffffffffffffffffffffffffffffffffff167f8c5be1e5ebec7d5bd14f71427d1e84f3dd0314c0f7b2291e5b200ac8c7c3b92560405160405180910390a45050565b6000610c9882610b60565b610cd7576040517f08c379a0000000000000000000000000000000000000000000000000000000008152600401610cce906128b0565b60405180910390fd5b6000610ce28361079c565b90508073ffffffffffffffffffffffffffffffffffffffff168473ffffffffffffffffffffffffffffffffffffffff161480610d5157508373ffffffffffffffffffffffffffffffffffffffff16610d3984610436565b73ffffffffffffffffffffffffffffffffffffffff16145b80610d625750610d618185610a52565b5b91505092915050565b8273ffffffffffffffffffffffffffffffffffffffff16610d8b8261079c565b73ffffffffffffffffffffffffffffffffffffffff1614610de1576040517f08c379a0000000000000000000000000000000000000000000000000000000008152600401610dd8906129b0565b60405180910390fd5b600073ffffffffffffffffffffffffffffffffffffffff168273ffffffffffffffffffffffffffffffffffffffff161415610e51576040517f08c379a0000000000000000000000000000000000000000000000000000000008152600401610e4890612870565b60405180910390fd5b610e5c83838361147a565b610e67600082610bd4565b6001600360008573ffffffffffffffffffffffffffffffffffffffff1673ffffffffffffffffffffffffffffffffffffffff1681526020019081526020016000206000828254610eb79190612bbc565b925050819055506001600360008473ffffffffffffffffffffffffffffffffffffffff1673ffffffffffffffffffffffffffffffffffffffff1681526020019081526020016000206000828254610f0e9190612b35565b92505081905550816002600083815260200190815260200160002060006101000a81548173ffffffffffffffffffffffffffffffffffffffff021916908373ffffffffffffffffffffffffffffffffffffffff160217905550808273ffffffffffffffffffffffffffffffffffffffff168473ffffffffffffffffffffffffffffffffffffffff167fddf252ad1be2c89b69c2b068fc378daa952ba7f163c4a11628f55a4df523b3ef60405160405180910390a4505050565b600081600001549050919050565b6001816000016000828254019250508190555050565b61100582826040518060200160405280600081525061148a565b5050565b61101282610b60565b611051576040517f08c379a000000000000000000000000000000000000000000000000000000000815260040161104890612930565b60405180910390fd5b80600a60008481526020019081526020016000209080519060200190611078929190611fc3565b505050565b8173ffffffffffffffffffffffffffffffffffffffff168373ffffffffffffffffffffffffffffffffffffffff1614156110ec576040517f08c379a00000000000000000000000000000000000000000000000000000000081526004016110e390612890565b60405180910390fd5b80600560008573ffffffffffffffffffffffffffffffffffffffff1673ffffffffffffffffffffffffffffffffffffffff16815260200190815260200160002060008473ffffffffffffffffffffffffffffffffffffffff1673ffffffffffffffffffffffffffffffffffffffff16815260200190815260200160002060006101000a81548160ff0219169083151502179055508173ffffffffffffffffffffffffffffffffffffffff168373ffffffffffffffffffffffffffffffffffffffff167f17307eab39ab6107e8899845ad3d59bd9653f200f220920489ca2b5937696c31836040516111dd91906127d3565b60405180910390a3505050565b6111f5848484610d6b565b611201848484846114e5565b611240576040517f08c379a000000000000000000000000000000000000000000000000000000000815260040161123790612830565b60405180910390fd5b50505050565b606061125182610b60565b611290576040517f08c379a000000000000000000000000000000000000000000000000000000000815260040161128790612970565b60405180910390fd5b6000600a600084815260200190815260200160002080546112b090612ca6565b80601f01602080910402602001604051908101604052809291908181526020018280546112dc90612ca6565b80156113295780601f106112fe57610100808354040283529160200191611329565b820191906000526020600020905b81548152906001019060200180831161130c57829003601f168201915b50505050509050600061133a61167c565b9050600081511415611350578192505050611393565b60008251111561138557808260405160200161136d929190612748565b60405160208183030381529060405292505050611393565b61138e84611693565b925050505b919050565b60007f80ac58cd000000000000000000000000000000000000000000000000000000007bffffffffffffffffffffffffffffffffffffffffffffffffffffffff1916827bffffffffffffffffffffffffffffffffffffffffffffffffffffffff1916148061146357507f5b5e139f000000000000000000000000000000000000000000000000000000007bffffffffffffffffffffffffffffffffffffffffffffffffffffffff1916827bffffffffffffffffffffffffffffffffffffffffffffffffffffffff1916145b8061147357506114728261173a565b5b9050919050565b6114858383836117a4565b505050565b61149483836118b8565b6114a160008484846114e5565b6114e0576040517f08c379a00000000000000000000000000000000000000000000000000000000081526004016114d790612830565b60405180910390fd5b505050565b60006115068473ffffffffffffffffffffffffffffffffffffffff16611a86565b1561166f578373ffffffffffffffffffffffffffffffffffffffff1663150b7a0261152f610bcc565b8786866040518563ffffffff1660e01b81526004016115519493929190612787565b602060405180830381600087803b15801561156b57600080fd5b505af192505050801561159c57506040513d601f19601f82011682018060405250810190611599919061236f565b60015b61161f573d80600081146115cc576040519150601f19603f3d011682016040523d82523d6000602084013e6115d1565b606091505b50600081511415611617576040517f08c379a000000000000000000000000000000000000000000000000000000000815260040161160e90612830565b60405180910390fd5b805181602001fd5b63150b7a0260e01b7bffffffffffffffffffffffffffffffffffffffffffffffffffffffff1916817bffffffffffffffffffffffffffffffffffffffffffffffffffffffff191614915050611674565b600190505b949350505050565b606060405180602001604052806000815250905090565b606061169e82610b60565b6116dd576040517f08c379a00000000000000000000000000000000000000000000000000000000081526004016116d4906129d0565b60405180910390fd5b60006116e761167c565b905060008151116117075760405180602001604052806000815250611732565b8061171184611a99565b604051602001611722929190612748565b6040516020818303038152906040525b915050919050565b60007f01ffc9a7000000000000000000000000000000000000000000000000000000007bffffffffffffffffffffffffffffffffffffffffffffffffffffffff1916827bffffffffffffffffffffffffffffffffffffffffffffffffffffffff1916149050919050565b6117af838383611c46565b600073ffffffffffffffffffffffffffffffffffffffff168373ffffffffffffffffffffffffffffffffffffffff1614156117f2576117ed81611c4b565b611831565b8173ffffffffffffffffffffffffffffffffffffffff168373ffffffffffffffffffffffffffffffffffffffff16146118305761182f8382611c94565b5b5b600073ffffffffffffffffffffffffffffffffffffffff168273ffffffffffffffffffffffffffffffffffffffff1614156118745761186f81611e01565b6118b3565b8273ffffffffffffffffffffffffffffffffffffffff168273ffffffffffffffffffffffffffffffffffffffff16146118b2576118b18282611f44565b5b5b505050565b600073ffffffffffffffffffffffffffffffffffffffff168273ffffffffffffffffffffffffffffffffffffffff161415611928576040517f08c379a000000000000000000000000000000000000000000000000000000000815260040161191f90612950565b60405180910390fd5b61193181610b60565b15611971576040517f08c379a000000000000000000000000000000000000000000000000000000000815260040161196890612850565b60405180910390fd5b61197d6000838361147a565b6001600360008473ffffffffffffffffffffffffffffffffffffffff1673ffffffffffffffffffffffffffffffffffffffff16815260200190815260200160002060008282546119cd9190612b35565b92505081905550816002600083815260200190815260200160002060006101000a81548173ffffffffffffffffffffffffffffffffffffffff021916908373ffffffffffffffffffffffffffffffffffffffff160217905550808273ffffffffffffffffffffffffffffffffffffffff16600073ffffffffffffffffffffffffffffffffffffffff167fddf252ad1be2c89b69c2b068fc378daa952ba7f163c4a11628f55a4df523b3ef60405160405180910390a45050565b600080823b905060008111915050919050565b60606000821415611ae1576040518060400160405280600181526020017f30000000000000000000000000000000000000000000000000000000000000008152509050611c41565b600082905060005b60008214611b13578080611afc90612d09565b915050600a82611b0c9190612b8b565b9150611ae9565b60008167ffffffffffffffff811115611b55577f4e487b7100000000000000000000000000000000000000000000000000000000600052604160045260246000fd5b6040519080825280601f01601f191660200182016040528015611b875781602001600182028036833780820191505090505b5090505b60008514611c3a57600182611ba09190612bbc565b9150600a85611baf9190612d52565b6030611bbb9190612b35565b60f81b818381518110611bf7577f4e487b7100000000000000000000000000000000000000000000000000000000600052603260045260246000fd5b60200101907effffffffffffffffffffffffffffffffffffffffffffffffffffffffffffff1916908160001a905350600a85611c339190612b8b565b9450611b8b565b8093505050505b919050565b505050565b6008805490506009600083815260200190815260200160002081905550600881908060018154018082558091505060019003906000526020600020016000909190919091505550565b60006001611ca18461087e565b611cab9190612bbc565b9050600060076000848152602001908152602001600020549050818114611d90576000600660008673ffffffffffffffffffffffffffffffffffffffff1673ffffffffffffffffffffffffffffffffffffffff168152602001908152602001600020600084815260200190815260200160002054905080600660008773ffffffffffffffffffffffffffffffffffffffff1673ffffffffffffffffffffffffffffffffffffffff168152602001908152602001600020600084815260200190815260200160002081905550816007600083815260200190815260200160002081905550505b6007600084815260200190815260200160002060009055600660008573ffffffffffffffffffffffffffffffffffffffff1673ffffffffffffffffffffffffffffffffffffffff16815260200190815260200160002060008381526020019081526020016000206000905550505050565b60006001600880549050611e159190612bbc565b9050600060096000848152602001908152602001600020549050600060088381548110611e6b577f4e487b7100000000000000000000000000000000000000000000000000000000600052603260045260246000fd5b906000526020600020015490508060088381548110611eb3577f4e487b7100000000000000000000000000000000000000000000000000000000600052603260045260246000fd5b906000526020600020018190555081600960008381526020019081526020016000208190555060096000858152602001908152602001600020600090556008805480611f28577f4e487b7100000000000000000000000000000000000000000000000000000000600052603160045260246000fd5b6001900381819060005260206000200160009055905550505050565b6000611f4f8361087e565b905081600660008573ffffffffffffffffffffffffffffffffffffffff1673ffffffffffffffffffffffffffffffffffffffff168152602001908152602001600020600083815260200190815260200160002081905550806007600084815260200190815260200160002081905550505050565b828054611fcf90612ca6565b90600052602060002090601f016020900481019282611ff15760008555612038565b82601f1061200a57805160ff1916838001178555612038565b82800160010185558215612038579182015b8281111561203757825182559160200191906001019061201c565b5b5090506120459190612049565b5090565b5b8082111561206257600081600090555060010161204a565b5090565b600061207961207484612a90565b612a6b565b90508281526020810184848401111561209157600080fd5b61209c848285612c64565b509392505050565b60006120b76120b284612ac1565b612a6b565b9050828152602081018484840111156120cf57600080fd5b6120da848285612c64565b509392505050565b6000813590506120f18161336c565b92915050565b60008135905061210681613383565b92915050565b60008135905061211b8161339a565b92915050565b6000815190506121308161339a565b92915050565b600082601f83011261214757600080fd5b8135612157848260208601612066565b91505092915050565b600082601f83011261217157600080fd5b81356121818482602086016120a4565b91505092915050565b600081359050612199816133b1565b92915050565b6000602082840312156121b157600080fd5b60006121bf848285016120e2565b91505092915050565b600080604083850312156121db57600080fd5b60006121e9858286016120e2565b92505060206121fa858286016120e2565b9150509250929050565b60008060006060848603121561221957600080fd5b6000612227868287016120e2565b9350506020612238868287016120e2565b92505060406122498682870161218a565b9150509250925092565b6000806000806080858703121561226957600080fd5b6000612277878288016120e2565b9450506020612288878288016120e2565b93505060406122998782880161218a565b925050606085013567ffffffffffffffff8111156122b657600080fd5b6122c287828801612136565b91505092959194509250565b600080604083850312156122e157600080fd5b60006122ef858286016120e2565b9250506020612300858286016120f7565b9150509250929050565b6000806040838503121561231d57600080fd5b600061232b858286016120e2565b925050602061233c8582860161218a565b9150509250929050565b60006020828403121561235857600080fd5b60006123668482850161210c565b91505092915050565b60006020828403121561238157600080fd5b600061238f84828501612121565b91505092915050565b6000602082840312156123aa57600080fd5b600082013567ffffffffffffffff8111156123c457600080fd5b6123d084828501612160565b91505092915050565b6000602082840312156123eb57600080fd5b60006123f98482850161218a565b91505092915050565b61240b81612bf0565b82525050565b61241a81612c02565b82525050565b600061242b82612af2565b6124358185612b08565b9350612445818560208601612c73565b61244e81612e3f565b840191505092915050565b600061246482612afd565b61246e8185612b19565b935061247e818560208601612c73565b61248781612e3f565b840191505092915050565b600061249d82612afd565b6124a78185612b2a565b93506124b7818560208601612c73565b80840191505092915050565b60006124d0602b83612b19565b91506124db82612e50565b604082019050919050565b60006124f3603283612b19565b91506124fe82612e9f565b604082019050919050565b6000612516601c83612b19565b915061252182612eee565b602082019050919050565b6000612539602483612b19565b915061254482612f17565b604082019050919050565b600061255c601983612b19565b915061256782612f66565b602082019050919050565b600061257f602c83612b19565b915061258a82612f8f565b604082019050919050565b60006125a2603883612b19565b91506125ad82612fde565b604082019050919050565b60006125c5602a83612b19565b91506125d08261302d565b604082019050919050565b60006125e8602983612b19565b91506125f38261307c565b604082019050919050565b600061260b602e83612b19565b9150612616826130cb565b604082019050919050565b600061262e602083612b19565b91506126398261311a565b602082019050919050565b6000612651603183612b19565b915061265c82613143565b604082019050919050565b6000612674602c83612b19565b915061267f82613192565b604082019050919050565b6000612697602983612b19565b91506126a2826131e1565b604082019050919050565b60006126ba602f83612b19565b91506126c582613230565b604082019050919050565b60006126dd602183612b19565b91506126e88261327f565b604082019050919050565b6000612700603183612b19565b915061270b826132ce565b604082019050919050565b6000612723602c83612b19565b915061272e8261331d565b604082019050919050565b61274281612c5a565b82525050565b60006127548285612492565b91506127608284612492565b91508190509392505050565b60006020820190506127816000830184612402565b92915050565b600060808201905061279c6000830187612402565b6127a96020830186612402565b6127b66040830185612739565b81810360608301526127c88184612420565b905095945050505050565b60006020820190506127e86000830184612411565b92915050565b600060208201905081810360008301526128088184612459565b905092915050565b60006020820190508181036000830152612829816124c3565b9050919050565b60006020820190508181036000830152612849816124e6565b9050919050565b6000602082019050818103600083015261286981612509565b9050919050565b600060208201905081810360008301526128898161252c565b9050919050565b600060208201905081810360008301526128a98161254f565b9050919050565b600060208201905081810360008301526128c981612572565b9050919050565b600060208201905081810360008301526128e981612595565b9050919050565b60006020820190508181036000830152612909816125b8565b9050919050565b60006020820190508181036000830152612929816125db565b9050919050565b60006020820190508181036000830152612949816125fe565b9050919050565b6000602082019050818103600083015261296981612621565b9050919050565b6000602082019050818103600083015261298981612644565b9050919050565b600060208201905081810360008301526129a981612667565b9050919050565b600060208201905081810360008301526129c98161268a565b9050919050565b600060208201905081810360008301526129e9816126ad565b9050919050565b60006020820190508181036000830152612a09816126d0565b9050919050565b60006020820190508181036000830152612a29816126f3565b9050919050565b60006020820190508181036000830152612a4981612716565b9050919050565b6000602082019050612a656000830184612739565b92915050565b6000612a75612a86565b9050612a818282612cd8565b919050565b6000604051905090565b600067ffffffffffffffff821115612aab57612aaa612e10565b5b612ab482612e3f565b9050602081019050919050565b600067ffffffffffffffff821115612adc57612adb612e10565b5b612ae582612e3f565b9050602081019050919050565b600081519050919050565b600081519050919050565b600082825260208201905092915050565b600082825260208201905092915050565b600081905092915050565b6000612b4082612c5a565b9150612b4b83612c5a565b9250827fffffffffffffffffffffffffffffffffffffffffffffffffffffffffffffffff03821115612b8057612b7f612d83565b5b828201905092915050565b6000612b9682612c5a565b9150612ba183612c5a565b925082612bb157612bb0612db2565b5b828204905092915050565b6000612bc782612c5a565b9150612bd283612c5a565b925082821015612be557612be4612d83565b5b828203905092915050565b6000612bfb82612c3a565b9050919050565b60008115159050919050565b60007fffffffff0000000000000000000000000000000000000000000000000000000082169050919050565b600073ffffffffffffffffffffffffffffffffffffffff82169050919050565b6000819050919050565b82818337600083830152505050565b60005b83811015612c91578082015181840152602081019050612c76565b83811115612ca0576000848401525b50505050565b60006002820490506001821680612cbe57607f821691505b60208210811415612cd257612cd1612de1565b5b50919050565b612ce182612e3f565b810181811067ffffffffffffffff82111715612d0057612cff612e10565b5b80604052505050565b6000612d1482612c5a565b91507fffffffffffffffffffffffffffffffffffffffffffffffffffffffffffffffff821415612d4757612d46612d83565b5b600182019050919050565b6000612d5d82612c5a565b9150612d6883612c5a565b925082612d7857612d77612db2565b5b828206905092915050565b7f4e487b7100000000000000000000000000000000000000000000000000000000600052601160045260246000fd5b7f4e487b7100000000000000000000000000000000000000000000000000000000600052601260045260246000fd5b7f4e487b7100000000000000000000000000000000000000000000000000000000600052602260045260246000fd5b7f4e487b7100000000000000000000000000000000000000000000000000000000600052604160045260246000fd5b6000601f19601f8301169050919050565b7f455243373231456e756d657261626c653a206f776e657220696e646578206f7560008201527f74206f6620626f756e6473000000000000000000000000000000000000000000602082015250565b7f4552433732313a207472616e7366657220746f206e6f6e20455243373231526560008201527f63656976657220696d706c656d656e7465720000000000000000000000000000602082015250565b7f4552433732313a20746f6b656e20616c7265616479206d696e74656400000000600082015250565b7f4552433732313a207472616e7366657220746f20746865207a65726f2061646460008201527f7265737300000000000000000000000000000000000000000000000000000000602082015250565b7f4552433732313a20617070726f766520746f2063616c6c657200000000000000600082015250565b7f4552433732313a206f70657261746f7220717565727920666f72206e6f6e657860008201527f697374656e7420746f6b656e0000000000000000000000000000000000000000602082015250565b7f4552433732313a20617070726f76652063616c6c6572206973206e6f74206f7760008201527f6e6572206e6f7220617070726f76656420666f7220616c6c0000000000000000602082015250565b7f4552433732313a2062616c616e636520717565727920666f7220746865207a6560008201527f726f206164647265737300000000000000000000000000000000000000000000602082015250565b7f4552433732313a206f776e657220717565727920666f72206e6f6e657869737460008201527f656e7420746f6b656e0000000000000000000000000000000000000000000000602082015250565b7f45524337323155524953746f726167653a2055524920736574206f66206e6f6e60008201527f6578697374656e7420746f6b656e000000000000000000000000000000000000602082015250565b7f4552433732313a206d696e7420746f20746865207a65726f2061646472657373600082015250565b7f45524337323155524953746f726167653a2055524920717565727920666f722060008201527f6e6f6e6578697374656e7420746f6b656e000000000000000000000000000000602082015250565b7f4552433732313a20617070726f76656420717565727920666f72206e6f6e657860008201527f697374656e7420746f6b656e0000000000000000000000000000000000000000602082015250565b7f4552433732313a207472616e73666572206f6620746f6b656e2074686174206960008201527f73206e6f74206f776e0000000000000000000000000000000000000000000000602082015250565b7f4552433732314d657461646174613a2055524920717565727920666f72206e6f60008201527f6e6578697374656e7420746f6b656e0000000000000000000000000000000000602082015250565b7f4552433732313a20617070726f76616c20746f2063757272656e74206f776e6560008201527f7200000000000000000000000000000000000000000000000000000000000000602082015250565b7f4552433732313a207472616e736665722063616c6c6572206973206e6f74206f60008201527f776e6572206e6f7220617070726f766564000000000000000000000000000000602082015250565b7f455243373231456e756d657261626c653a20676c6f62616c20696e646578206f60008201527f7574206f6620626f756e64730000000000000000000000000000000000000000602082015250565b61337581612bf0565b811461338057600080fd5b50565b61338c81612c02565b811461339757600080fd5b50565b6133a381612c0e565b81146133ae57600080fd5b50565b6133ba81612c5a565b81146133c557600080fd5b5056fea2646970667358221220f945ae104c973a5d5756a3e9a7ca71030774b0caed109ae3cdcd88082daf684564736f6c63430008040033",
  "devdoc": {
    "custom:security-contact": "dany.armstrong90@gmail.com",
    "kind": "dev",
    "methods": {
      "approve(address,uint256)": {
        "details": "See {IERC721-approve}."
      },
      "balanceOf(address)": {
        "details": "See {IERC721-balanceOf}."
      },
      "getApproved(uint256)": {
        "details": "See {IERC721-getApproved}."
      },
      "isApprovedForAll(address,address)": {
        "details": "See {IERC721-isApprovedForAll}."
      },
      "name()": {
        "details": "See {IERC721Metadata-name}."
      },
      "ownerOf(uint256)": {
        "details": "See {IERC721-ownerOf}."
      },
      "safeTransferFrom(address,address,uint256)": {
        "details": "See {IERC721-safeTransferFrom}."
      },
      "safeTransferFrom(address,address,uint256,bytes)": {
        "details": "See {IERC721-safeTransferFrom}."
      },
      "setApprovalForAll(address,bool)": {
        "details": "See {IERC721-setApprovalForAll}."
      },
      "symbol()": {
        "details": "See {IERC721Metadata-symbol}."
      },
      "tokenByIndex(uint256)": {
        "details": "See {IERC721Enumerable-tokenByIndex}."
      },
      "tokenOfOwnerByIndex(address,uint256)": {
        "details": "See {IERC721Enumerable-tokenOfOwnerByIndex}."
      },
      "totalSupply()": {
        "details": "See {IERC721Enumerable-totalSupply}."
      },
      "transferFrom(address,address,uint256)": {
        "details": "See {IERC721-transferFrom}."
      }
    },
    "version": 1
  },
  "userdoc": {
    "kind": "user",
    "methods": {},
    "version": 1
  },
  "storageLayout": {
    "storage": [
      {
        "astId": 25,
        "contract": "contracts/ZooNftCollection.sol:ZooNftCollection",
        "label": "_name",
        "offset": 0,
        "slot": "0",
        "type": "t_string_storage"
      },
      {
        "astId": 27,
        "contract": "contracts/ZooNftCollection.sol:ZooNftCollection",
        "label": "_symbol",
        "offset": 0,
        "slot": "1",
        "type": "t_string_storage"
      },
      {
        "astId": 31,
        "contract": "contracts/ZooNftCollection.sol:ZooNftCollection",
        "label": "_owners",
        "offset": 0,
        "slot": "2",
        "type": "t_mapping(t_uint256,t_address)"
      },
      {
        "astId": 35,
        "contract": "contracts/ZooNftCollection.sol:ZooNftCollection",
        "label": "_balances",
        "offset": 0,
        "slot": "3",
        "type": "t_mapping(t_address,t_uint256)"
      },
      {
        "astId": 39,
        "contract": "contracts/ZooNftCollection.sol:ZooNftCollection",
        "label": "_tokenApprovals",
        "offset": 0,
        "slot": "4",
        "type": "t_mapping(t_uint256,t_address)"
      },
      {
        "astId": 45,
        "contract": "contracts/ZooNftCollection.sol:ZooNftCollection",
        "label": "_operatorApprovals",
        "offset": 0,
        "slot": "5",
        "type": "t_mapping(t_address,t_mapping(t_address,t_bool))"
      },
      {
        "astId": 979,
        "contract": "contracts/ZooNftCollection.sol:ZooNftCollection",
        "label": "_ownedTokens",
        "offset": 0,
        "slot": "6",
        "type": "t_mapping(t_address,t_mapping(t_uint256,t_uint256))"
      },
      {
        "astId": 983,
        "contract": "contracts/ZooNftCollection.sol:ZooNftCollection",
        "label": "_ownedTokensIndex",
        "offset": 0,
        "slot": "7",
        "type": "t_mapping(t_uint256,t_uint256)"
      },
      {
        "astId": 986,
        "contract": "contracts/ZooNftCollection.sol:ZooNftCollection",
        "label": "_allTokens",
        "offset": 0,
        "slot": "8",
        "type": "t_array(t_uint256)dyn_storage"
      },
      {
        "astId": 990,
        "contract": "contracts/ZooNftCollection.sol:ZooNftCollection",
        "label": "_allTokensIndex",
        "offset": 0,
        "slot": "9",
        "type": "t_mapping(t_uint256,t_uint256)"
      },
      {
        "astId": 1315,
        "contract": "contracts/ZooNftCollection.sol:ZooNftCollection",
        "label": "_tokenURIs",
        "offset": 0,
        "slot": "10",
        "type": "t_mapping(t_uint256,t_string_storage)"
      },
      {
        "astId": 2140,
        "contract": "contracts/ZooNftCollection.sol:ZooNftCollection",
        "label": "_tokenIdCounter",
        "offset": 0,
        "slot": "11",
        "type": "t_struct(Counter)1813_storage"
      }
    ],
    "types": {
      "t_address": {
        "encoding": "inplace",
        "label": "address",
        "numberOfBytes": "20"
      },
      "t_array(t_uint256)dyn_storage": {
        "base": "t_uint256",
        "encoding": "dynamic_array",
        "label": "uint256[]",
        "numberOfBytes": "32"
      },
      "t_bool": {
        "encoding": "inplace",
        "label": "bool",
        "numberOfBytes": "1"
      },
      "t_mapping(t_address,t_bool)": {
        "encoding": "mapping",
        "key": "t_address",
        "label": "mapping(address => bool)",
        "numberOfBytes": "32",
        "value": "t_bool"
      },
      "t_mapping(t_address,t_mapping(t_address,t_bool))": {
        "encoding": "mapping",
        "key": "t_address",
        "label": "mapping(address => mapping(address => bool))",
        "numberOfBytes": "32",
        "value": "t_mapping(t_address,t_bool)"
      },
      "t_mapping(t_address,t_mapping(t_uint256,t_uint256))": {
        "encoding": "mapping",
        "key": "t_address",
        "label": "mapping(address => mapping(uint256 => uint256))",
        "numberOfBytes": "32",
        "value": "t_mapping(t_uint256,t_uint256)"
      },
      "t_mapping(t_address,t_uint256)": {
        "encoding": "mapping",
        "key": "t_address",
        "label": "mapping(address => uint256)",
        "numberOfBytes": "32",
        "value": "t_uint256"
      },
      "t_mapping(t_uint256,t_address)": {
        "encoding": "mapping",
        "key": "t_uint256",
        "label": "mapping(uint256 => address)",
        "numberOfBytes": "32",
        "value": "t_address"
      },
      "t_mapping(t_uint256,t_string_storage)": {
        "encoding": "mapping",
        "key": "t_uint256",
        "label": "mapping(uint256 => string)",
        "numberOfBytes": "32",
        "value": "t_string_storage"
      },
      "t_mapping(t_uint256,t_uint256)": {
        "encoding": "mapping",
        "key": "t_uint256",
        "label": "mapping(uint256 => uint256)",
        "numberOfBytes": "32",
        "value": "t_uint256"
      },
      "t_string_storage": {
        "encoding": "bytes",
        "label": "string",
        "numberOfBytes": "32"
      },
      "t_struct(Counter)1813_storage": {
        "encoding": "inplace",
        "label": "struct Counters.Counter",
        "members": [
          {
            "astId": 1812,
            "contract": "contracts/ZooNftCollection.sol:ZooNftCollection",
            "label": "_value",
            "offset": 0,
            "slot": "0",
            "type": "t_uint256"
          }
        ],
        "numberOfBytes": "32"
      },
      "t_uint256": {
        "encoding": "inplace",
        "label": "uint256",
        "numberOfBytes": "32"
      }
    }
  }
}