{
  "address": "0x5FbDB2315678afecb367f032d93F642f64180aa3",
  "abi": [
    {
      "inputs": [],
      "stateMutability": "nonpayable",
      "type": "constructor"
    },
    {
      "anonymous": false,
      "inputs": [
        {
          "indexed": true,
          "internalType": "address",
          "name": "owner",
          "type": "address"
        },
        {
          "indexed": true,
          "internalType": "address",
          "name": "approved",
          "type": "address"
        },
        {
          "indexed": true,
          "internalType": "uint256",
          "name": "tokenId",
          "type": "uint256"
        }
      ],
      "name": "Approval",
      "type": "event"
    },
    {
      "anonymous": false,
      "inputs": [
        {
          "indexed": true,
          "internalType": "address",
          "name": "owner",
          "type": "address"
        },
        {
          "indexed": true,
          "internalType": "address",
          "name": "operator",
          "type": "address"
        },
        {
          "indexed": false,
          "internalType": "bool",
          "name": "approved",
          "type": "bool"
        }
      ],
      "name": "ApprovalForAll",
      "type": "event"
    },
    {
      "anonymous": false,
      "inputs": [
        {
          "indexed": true,
          "internalType": "address",
          "name": "from",
          "type": "address"
        },
        {
          "indexed": true,
          "internalType": "address",
          "name": "to",
          "type": "address"
        },
        {
          "indexed": true,
          "internalType": "uint256",
          "name": "tokenId",
          "type": "uint256"
        }
      ],
      "name": "Transfer",
      "type": "event"
    },
    {
      "inputs": [
        {
          "internalType": "address",
          "name": "to",
          "type": "address"
        },
        {
          "internalType": "uint256",
          "name": "tokenId",
          "type": "uint256"
        }
      ],
      "name": "approve",
      "outputs": [],
      "stateMutability": "nonpayable",
      "type": "function"
    },
    {
      "inputs": [
        {
          "internalType": "address",
          "name": "owner",
          "type": "address"
        }
      ],
      "name": "balanceOf",
      "outputs": [
        {
          "internalType": "uint256",
          "name": "",
          "type": "uint256"
        }
      ],
      "stateMutability": "view",
      "type": "function"
    },
    {
      "inputs": [
        {
          "internalType": "uint256",
          "name": "tokenId",
          "type": "uint256"
        }
      ],
      "name": "getApproved",
      "outputs": [
        {
          "internalType": "address",
          "name": "",
          "type": "address"
        }
      ],
      "stateMutability": "view",
      "type": "function"
    },
    {
      "inputs": [
        {
          "internalType": "address",
          "name": "owner",
          "type": "address"
        },
        {
          "internalType": "address",
          "name": "operator",
          "type": "address"
        }
      ],
      "name": "isApprovedForAll",
      "outputs": [
        {
          "internalType": "bool",
          "name": "",
          "type": "bool"
        }
      ],
      "stateMutability": "view",
      "type": "function"
    },
    {
      "inputs": [],
      "name": "name",
      "outputs": [
        {
          "internalType": "string",
          "name": "",
          "type": "string"
        }
      ],
      "stateMutability": "view",
      "type": "function"
    },
    {
      "inputs": [
        {
          "internalType": "uint256",
          "name": "tokenId",
          "type": "uint256"
        }
      ],
      "name": "ownerOf",
      "outputs": [
        {
          "internalType": "address",
          "name": "",
          "type": "address"
        }
      ],
      "stateMutability": "view",
      "type": "function"
    },
    {
      "inputs": [
        {
          "internalType": "string",
          "name": "_tokenURI",
          "type": "string"
        }
      ],
      "name": "safeMint",
      "outputs": [],
      "stateMutability": "nonpayable",
      "type": "function"
    },
    {
      "inputs": [
        {
          "internalType": "address",
          "name": "from",
          "type": "address"
        },
        {
          "internalType": "address",
          "name": "to",
          "type": "address"
        },
        {
          "internalType": "uint256",
          "name": "tokenId",
          "type": "uint256"
        }
      ],
      "name": "safeTransferFrom",
      "outputs": [],
      "stateMutability": "nonpayable",
      "type": "function"
    },
    {
      "inputs": [
        {
          "internalType": "address",
          "name": "from",
          "type": "address"
        },
        {
          "internalType": "address",
          "name": "to",
          "type": "address"
        },
        {
          "internalType": "uint256",
          "name": "tokenId",
          "type": "uint256"
        },
        {
          "internalType": "bytes",
          "name": "_data",
          "type": "bytes"
        }
      ],
      "name": "safeTransferFrom",
      "outputs": [],
      "stateMutability": "nonpayable",
      "type": "function"
    },
    {
      "inputs": [
        {
          "internalType": "address",
          "name": "operator",
          "type": "address"
        },
        {
          "internalType": "bool",
          "name": "approved",
          "type": "bool"
        }
      ],
      "name": "setApprovalForAll",
      "outputs": [],
      "stateMutability": "nonpayable",
      "type": "function"
    },
    {
      "inputs": [
        {
          "internalType": "bytes4",
          "name": "interfaceId",
          "type": "bytes4"
        }
      ],
      "name": "supportsInterface",
      "outputs": [
        {
          "internalType": "bool",
          "name": "",
          "type": "bool"
        }
      ],
      "stateMutability": "view",
      "type": "function"
    },
    {
      "inputs": [],
      "name": "symbol",
      "outputs": [
        {
          "internalType": "string",
          "name": "",
          "type": "string"
        }
      ],
      "stateMutability": "view",
      "type": "function"
    },
    {
      "inputs": [
        {
          "internalType": "uint256",
          "name": "index",
          "type": "uint256"
        }
      ],
      "name": "tokenByIndex",
      "outputs": [
        {
          "internalType": "uint256",
          "name": "",
          "type": "uint256"
        }
      ],
      "stateMutability": "view",
      "type": "function"
    },
    {
      "inputs": [
        {
          "internalType": "address",
          "name": "owner",
          "type": "address"
        },
        {
          "internalType": "uint256",
          "name": "index",
          "type": "uint256"
        }
      ],
      "name": "tokenOfOwnerByIndex",
      "outputs": [
        {
          "internalType": "uint256",
          "name": "",
          "type": "uint256"
        }
      ],
      "stateMutability": "view",
      "type": "function"
    },
    {
      "inputs": [
        {
          "internalType": "uint256",
          "name": "tokenId",
          "type": "uint256"
        }
      ],
      "name": "tokenURI",
      "outputs": [
        {
          "internalType": "string",
          "name": "",
          "type": "string"
        }
      ],
      "stateMutability": "view",
      "type": "function"
    },
    {
      "inputs": [
        {
          "internalType": "uint256",
          "name": "",
          "type": "uint256"
        }
      ],
      "name": "tokenURIs",
      "outputs": [
        {
          "internalType": "string",
          "name": "",
          "type": "string"
        }
      ],
      "stateMutability": "view",
      "type": "function"
    },
    {
      "inputs": [],
      "name": "totalSupply",
      "outputs": [
        {
          "internalType": "uint256",
          "name": "",
          "type": "uint256"
        }
      ],
      "stateMutability": "view",
      "type": "function"
    },
    {
      "inputs": [
        {
          "internalType": "address",
          "name": "from",
          "type": "address"
        },
        {
          "internalType": "address",
          "name": "to",
          "type": "address"
        },
        {
          "internalType": "uint256",
          "name": "tokenId",
          "type": "uint256"
        }
      ],
      "name": "transferFrom",
      "outputs": [],
      "stateMutability": "nonpayable",
      "type": "function"
    }
  ],
  "transactionHash": "0x64e1d198717ae4024e751bd2c9e75ec6d99af3669c9ecc7ae5ab2c16a829aa93",
  "args": [],
  "numDeployments": 1,
  "solcInputHash": "6667f28160b2c4f40187a2847e172f37",
  "bytecode": "0x60806040523480156200001157600080fd5b506040518060400160405280601181526020017f4d794e66744320436f6c6c656374696f6e0000000000000000000000000000008152506040518060400160405280600681526020017f4d794e6674430000000000000000000000000000000000000000000000000000815250816000908051906020019062000096929190620000b8565b508060019080519060200190620000af929190620000b8565b505050620001cd565b828054620000c69062000168565b90600052602060002090601f016020900481019282620000ea576000855562000136565b82601f106200010557805160ff191683800117855562000136565b8280016001018555821562000136579182015b828111156200013557825182559160200191906001019062000118565b5b50905062000145919062000149565b5090565b5b80821115620001645760008160009055506001016200014a565b5090565b600060028204905060018216806200018157607f821691505b602082108114156200019857620001976200019e565b5b50919050565b7f4e487b7100000000000000000000000000000000000000000000000000000000600052602260045260246000fd5b6130bb80620001dd6000396000f3fe608060405234801561001057600080fd5b50600436106101165760003560e01c80636352211e116100a257806395d89b411161007157806395d89b4114610317578063a22cb46514610335578063b88d4fde14610351578063c87b56dd1461036d578063e985e9c51461039d57610116565b80636352211e1461026b578063695850fb1461029b5780636c8b703f146102b757806370a08231146102e757610116565b806318160ddd116100e957806318160ddd146101b557806323b872dd146101d35780632f745c59146101ef57806342842e0e1461021f5780634f6ccce71461023b57610116565b806301ffc9a71461011b57806306fdde031461014b578063081812fc14610169578063095ea7b314610199575b600080fd5b610135600480360381019061013091906121a2565b6103cd565b60405161014291906125ff565b60405180910390f35b6101536103df565b604051610160919061261a565b60405180910390f35b610183600480360381019061017e9190612235565b610471565b6040516101909190612598565b60405180910390f35b6101b360048036038101906101ae9190612166565b6104f6565b005b6101bd61060e565b6040516101ca919061285c565b60405180910390f35b6101ed60048036038101906101e89190612060565b61061b565b005b61020960048036038101906102049190612166565b61067b565b604051610216919061285c565b60405180910390f35b61023960048036038101906102349190612060565b610720565b005b61025560048036038101906102509190612235565b610740565b604051610262919061285c565b60405180910390f35b61028560048036038101906102809190612235565b6107d7565b6040516102929190612598565b60405180910390f35b6102b560048036038101906102b091906121f4565b610889565b005b6102d160048036038101906102cc9190612235565b6109a8565b6040516102de919061261a565b60405180910390f35b61030160048036038101906102fc9190611ffb565b610a54565b60405161030e919061285c565b60405180910390f35b61031f610b0c565b60405161032c919061261a565b60405180910390f35b61034f600480360381019061034a919061212a565b610b9e565b005b61036b600480360381019061036691906120af565b610bb4565b005b61038760048036038101906103829190612235565b610c16565b604051610394919061261a565b60405180910390f35b6103b760048036038101906103b29190612024565b610d03565b6040516103c491906125ff565b60405180910390f35b60006103d882610d97565b9050919050565b6060600080546103ee90612a81565b80601f016020809104026020016040519081016040528092919081815260200182805461041a90612a81565b80156104675780601f1061043c57610100808354040283529160200191610467565b820191906000526020600020905b81548152906001019060200180831161044a57829003601f168201915b5050505050905090565b600061047c82610e11565b6104bb576040517f08c379a00000000000000000000000000000000000000000000000000000000081526004016104b29061279c565b60405180910390fd5b6004600083815260200190815260200160002060009054906101000a900473ffffffffffffffffffffffffffffffffffffffff169050919050565b6000610501826107d7565b90508073ffffffffffffffffffffffffffffffffffffffff168373ffffffffffffffffffffffffffffffffffffffff161415610572576040517f08c379a0000000000000000000000000000000000000000000000000000000008152600401610569906127fc565b60405180910390fd5b8073ffffffffffffffffffffffffffffffffffffffff16610591610e7d565b73ffffffffffffffffffffffffffffffffffffffff1614806105c057506105bf816105ba610e7d565b610d03565b5b6105ff576040517f08c379a00000000000000000000000000000000000000000000000000000000081526004016105f69061271c565b60405180910390fd5b6106098383610e85565b505050565b6000600880549050905090565b61062c610626610e7d565b82610f3e565b61066b576040517f08c379a00000000000000000000000000000000000000000000000000000000081526004016106629061281c565b60405180910390fd5b61067683838361101c565b505050565b600061068683610a54565b82106106c7576040517f08c379a00000000000000000000000000000000000000000000000000000000081526004016106be9061263c565b60405180910390fd5b600660008473ffffffffffffffffffffffffffffffffffffffff1673ffffffffffffffffffffffffffffffffffffffff168152602001908152602001600020600083815260200190815260200160002054905092915050565b61073b83838360405180602001604052806000815250610bb4565b505050565b600061074a61060e565b821061078b576040517f08c379a00000000000000000000000000000000000000000000000000000000081526004016107829061283c565b60405180910390fd5b600882815481106107c5577f4e487b7100000000000000000000000000000000000000000000000000000000600052603260045260246000fd5b90600052602060002001549050919050565b6000806002600084815260200190815260200160002060009054906101000a900473ffffffffffffffffffffffffffffffffffffffff169050600073ffffffffffffffffffffffffffffffffffffffff168173ffffffffffffffffffffffffffffffffffffffff161415610880576040517f08c379a00000000000000000000000000000000000000000000000000000000081526004016108779061275c565b60405180910390fd5b80915050919050565b600b816040516108999190612581565b908152602001604051809103902060009054906101000a900460ff16156108f5576040517f08c379a00000000000000000000000000000000000000000000000000000000081526004016108ec906126fc565b60405180910390fd5b600a81908060018154018082558091505060019003906000526020600020016000909190919091509080519060200190610930929190611e1f565b506000600a80549050905081600c60008381526020019081526020016000209080519060200190610962929190611e1f565b5061096d3382611278565b6001600b8360405161097f9190612581565b908152602001604051809103902060006101000a81548160ff0219169083151502179055505050565b600a81815481106109b857600080fd5b9060005260206000200160009150905080546109d390612a81565b80601f01602080910402602001604051908101604052809291908181526020018280546109ff90612a81565b8015610a4c5780601f10610a2157610100808354040283529160200191610a4c565b820191906000526020600020905b815481529060010190602001808311610a2f57829003601f168201915b505050505081565b60008073ffffffffffffffffffffffffffffffffffffffff168273ffffffffffffffffffffffffffffffffffffffff161415610ac5576040517f08c379a0000000000000000000000000000000000000000000000000000000008152600401610abc9061273c565b60405180910390fd5b600360008373ffffffffffffffffffffffffffffffffffffffff1673ffffffffffffffffffffffffffffffffffffffff168152602001908152602001600020549050919050565b606060018054610b1b90612a81565b80601f0160208091040260200160405190810160405280929190818152602001828054610b4790612a81565b8015610b945780601f10610b6957610100808354040283529160200191610b94565b820191906000526020600020905b815481529060010190602001808311610b7757829003601f168201915b5050505050905090565b610bb0610ba9610e7d565b8383611296565b5050565b610bc5610bbf610e7d565b83610f3e565b610c04576040517f08c379a0000000000000000000000000000000000000000000000000000000008152600401610bfb9061281c565b60405180910390fd5b610c1084848484611403565b50505050565b6060610c2182610e11565b610c60576040517f08c379a0000000000000000000000000000000000000000000000000000000008152600401610c57906127dc565b60405180910390fd5b600c60008381526020019081526020016000208054610c7e90612a81565b80601f0160208091040260200160405190810160405280929190818152602001828054610caa90612a81565b8015610cf75780601f10610ccc57610100808354040283529160200191610cf7565b820191906000526020600020905b815481529060010190602001808311610cda57829003601f168201915b50505050509050919050565b6000600560008473ffffffffffffffffffffffffffffffffffffffff1673ffffffffffffffffffffffffffffffffffffffff16815260200190815260200160002060008373ffffffffffffffffffffffffffffffffffffffff1673ffffffffffffffffffffffffffffffffffffffff16815260200190815260200160002060009054906101000a900460ff16905092915050565b60007f780e9d63000000000000000000000000000000000000000000000000000000007bffffffffffffffffffffffffffffffffffffffffffffffffffffffff1916827bffffffffffffffffffffffffffffffffffffffffffffffffffffffff19161480610e0a5750610e098261145f565b5b9050919050565b60008073ffffffffffffffffffffffffffffffffffffffff166002600084815260200190815260200160002060009054906101000a900473ffffffffffffffffffffffffffffffffffffffff1673ffffffffffffffffffffffffffffffffffffffff1614159050919050565b600033905090565b816004600083815260200190815260200160002060006101000a81548173ffffffffffffffffffffffffffffffffffffffff021916908373ffffffffffffffffffffffffffffffffffffffff160217905550808273ffffffffffffffffffffffffffffffffffffffff16610ef8836107d7565b73ffffffffffffffffffffffffffffffffffffffff167f8c5be1e5ebec7d5bd14f71427d1e84f3dd0314c0f7b2291e5b200ac8c7c3b92560405160405180910390a45050565b6000610f4982610e11565b610f88576040517f08c379a0000000000000000000000000000000000000000000000000000000008152600401610f7f906126dc565b60405180910390fd5b6000610f93836107d7565b90508073ffffffffffffffffffffffffffffffffffffffff168473ffffffffffffffffffffffffffffffffffffffff16148061100257508373ffffffffffffffffffffffffffffffffffffffff16610fea84610471565b73ffffffffffffffffffffffffffffffffffffffff16145b8061101357506110128185610d03565b5b91505092915050565b8273ffffffffffffffffffffffffffffffffffffffff1661103c826107d7565b73ffffffffffffffffffffffffffffffffffffffff1614611092576040517f08c379a0000000000000000000000000000000000000000000000000000000008152600401611089906127bc565b60405180910390fd5b600073ffffffffffffffffffffffffffffffffffffffff168273ffffffffffffffffffffffffffffffffffffffff161415611102576040517f08c379a00000000000000000000000000000000000000000000000000000000081526004016110f99061269c565b60405180910390fd5b61110d838383611541565b611118600082610e85565b6001600360008573ffffffffffffffffffffffffffffffffffffffff1673ffffffffffffffffffffffffffffffffffffffff16815260200190815260200160002060008282546111689190612997565b925050819055506001600360008473ffffffffffffffffffffffffffffffffffffffff1673ffffffffffffffffffffffffffffffffffffffff16815260200190815260200160002060008282546111bf9190612941565b92505081905550816002600083815260200190815260200160002060006101000a81548173ffffffffffffffffffffffffffffffffffffffff021916908373ffffffffffffffffffffffffffffffffffffffff160217905550808273ffffffffffffffffffffffffffffffffffffffff168473ffffffffffffffffffffffffffffffffffffffff167fddf252ad1be2c89b69c2b068fc378daa952ba7f163c4a11628f55a4df523b3ef60405160405180910390a4505050565b611292828260405180602001604052806000815250611551565b5050565b8173ffffffffffffffffffffffffffffffffffffffff168373ffffffffffffffffffffffffffffffffffffffff161415611305576040517f08c379a00000000000000000000000000000000000000000000000000000000081526004016112fc906126bc565b60405180910390fd5b80600560008573ffffffffffffffffffffffffffffffffffffffff1673ffffffffffffffffffffffffffffffffffffffff16815260200190815260200160002060008473ffffffffffffffffffffffffffffffffffffffff1673ffffffffffffffffffffffffffffffffffffffff16815260200190815260200160002060006101000a81548160ff0219169083151502179055508173ffffffffffffffffffffffffffffffffffffffff168373ffffffffffffffffffffffffffffffffffffffff167f17307eab39ab6107e8899845ad3d59bd9653f200f220920489ca2b5937696c31836040516113f691906125ff565b60405180910390a3505050565b61140e84848461101c565b61141a848484846115ac565b611459576040517f08c379a00000000000000000000000000000000000000000000000000000000081526004016114509061265c565b60405180910390fd5b50505050565b60007f80ac58cd000000000000000000000000000000000000000000000000000000007bffffffffffffffffffffffffffffffffffffffffffffffffffffffff1916827bffffffffffffffffffffffffffffffffffffffffffffffffffffffff1916148061152a57507f5b5e139f000000000000000000000000000000000000000000000000000000007bffffffffffffffffffffffffffffffffffffffffffffffffffffffff1916827bffffffffffffffffffffffffffffffffffffffffffffffffffffffff1916145b8061153a575061153982611743565b5b9050919050565b61154c8383836117ad565b505050565b61155b83836118c1565b61156860008484846115ac565b6115a7576040517f08c379a000000000000000000000000000000000000000000000000000000000815260040161159e9061265c565b60405180910390fd5b505050565b60006115cd8473ffffffffffffffffffffffffffffffffffffffff16611a8f565b15611736578373ffffffffffffffffffffffffffffffffffffffff1663150b7a026115f6610e7d565b8786866040518563ffffffff1660e01b815260040161161894939291906125b3565b602060405180830381600087803b15801561163257600080fd5b505af192505050801561166357506040513d601f19601f8201168201806040525081019061166091906121cb565b60015b6116e6573d8060008114611693576040519150601f19603f3d011682016040523d82523d6000602084013e611698565b606091505b506000815114156116de576040517f08c379a00000000000000000000000000000000000000000000000000000000081526004016116d59061265c565b60405180910390fd5b805181602001fd5b63150b7a0260e01b7bffffffffffffffffffffffffffffffffffffffffffffffffffffffff1916817bffffffffffffffffffffffffffffffffffffffffffffffffffffffff19161491505061173b565b600190505b949350505050565b60007f01ffc9a7000000000000000000000000000000000000000000000000000000007bffffffffffffffffffffffffffffffffffffffffffffffffffffffff1916827bffffffffffffffffffffffffffffffffffffffffffffffffffffffff1916149050919050565b6117b8838383611aa2565b600073ffffffffffffffffffffffffffffffffffffffff168373ffffffffffffffffffffffffffffffffffffffff1614156117fb576117f681611aa7565b61183a565b8173ffffffffffffffffffffffffffffffffffffffff168373ffffffffffffffffffffffffffffffffffffffff1614611839576118388382611af0565b5b5b600073ffffffffffffffffffffffffffffffffffffffff168273ffffffffffffffffffffffffffffffffffffffff16141561187d5761187881611c5d565b6118bc565b8273ffffffffffffffffffffffffffffffffffffffff168273ffffffffffffffffffffffffffffffffffffffff16146118bb576118ba8282611da0565b5b5b505050565b600073ffffffffffffffffffffffffffffffffffffffff168273ffffffffffffffffffffffffffffffffffffffff161415611931576040517f08c379a00000000000000000000000000000000000000000000000000000000081526004016119289061277c565b60405180910390fd5b61193a81610e11565b1561197a576040517f08c379a00000000000000000000000000000000000000000000000000000000081526004016119719061267c565b60405180910390fd5b61198660008383611541565b6001600360008473ffffffffffffffffffffffffffffffffffffffff1673ffffffffffffffffffffffffffffffffffffffff16815260200190815260200160002060008282546119d69190612941565b92505081905550816002600083815260200190815260200160002060006101000a81548173ffffffffffffffffffffffffffffffffffffffff021916908373ffffffffffffffffffffffffffffffffffffffff160217905550808273ffffffffffffffffffffffffffffffffffffffff16600073ffffffffffffffffffffffffffffffffffffffff167fddf252ad1be2c89b69c2b068fc378daa952ba7f163c4a11628f55a4df523b3ef60405160405180910390a45050565b600080823b905060008111915050919050565b505050565b6008805490506009600083815260200190815260200160002081905550600881908060018154018082558091505060019003906000526020600020016000909190919091505550565b60006001611afd84610a54565b611b079190612997565b9050600060076000848152602001908152602001600020549050818114611bec576000600660008673ffffffffffffffffffffffffffffffffffffffff1673ffffffffffffffffffffffffffffffffffffffff168152602001908152602001600020600084815260200190815260200160002054905080600660008773ffffffffffffffffffffffffffffffffffffffff1673ffffffffffffffffffffffffffffffffffffffff168152602001908152602001600020600084815260200190815260200160002081905550816007600083815260200190815260200160002081905550505b6007600084815260200190815260200160002060009055600660008573ffffffffffffffffffffffffffffffffffffffff1673ffffffffffffffffffffffffffffffffffffffff16815260200190815260200160002060008381526020019081526020016000206000905550505050565b60006001600880549050611c719190612997565b9050600060096000848152602001908152602001600020549050600060088381548110611cc7577f4e487b7100000000000000000000000000000000000000000000000000000000600052603260045260246000fd5b906000526020600020015490508060088381548110611d0f577f4e487b7100000000000000000000000000000000000000000000000000000000600052603260045260246000fd5b906000526020600020018190555081600960008381526020019081526020016000208190555060096000858152602001908152602001600020600090556008805480611d84577f4e487b7100000000000000000000000000000000000000000000000000000000600052603160045260246000fd5b6001900381819060005260206000200160009055905550505050565b6000611dab83610a54565b905081600660008573ffffffffffffffffffffffffffffffffffffffff1673ffffffffffffffffffffffffffffffffffffffff168152602001908152602001600020600083815260200190815260200160002081905550806007600084815260200190815260200160002081905550505050565b828054611e2b90612a81565b90600052602060002090601f016020900481019282611e4d5760008555611e94565b82601f10611e6657805160ff1916838001178555611e94565b82800160010185558215611e94579182015b82811115611e93578251825591602001919060010190611e78565b5b509050611ea19190611ea5565b5090565b5b80821115611ebe576000816000905550600101611ea6565b5090565b6000611ed5611ed08461289c565b612877565b905082815260208101848484011115611eed57600080fd5b611ef8848285612a3f565b509392505050565b6000611f13611f0e846128cd565b612877565b905082815260208101848484011115611f2b57600080fd5b611f36848285612a3f565b509392505050565b600081359050611f4d81613029565b92915050565b600081359050611f6281613040565b92915050565b600081359050611f7781613057565b92915050565b600081519050611f8c81613057565b92915050565b600082601f830112611fa357600080fd5b8135611fb3848260208601611ec2565b91505092915050565b600082601f830112611fcd57600080fd5b8135611fdd848260208601611f00565b91505092915050565b600081359050611ff58161306e565b92915050565b60006020828403121561200d57600080fd5b600061201b84828501611f3e565b91505092915050565b6000806040838503121561203757600080fd5b600061204585828601611f3e565b925050602061205685828601611f3e565b9150509250929050565b60008060006060848603121561207557600080fd5b600061208386828701611f3e565b935050602061209486828701611f3e565b92505060406120a586828701611fe6565b9150509250925092565b600080600080608085870312156120c557600080fd5b60006120d387828801611f3e565b94505060206120e487828801611f3e565b93505060406120f587828801611fe6565b925050606085013567ffffffffffffffff81111561211257600080fd5b61211e87828801611f92565b91505092959194509250565b6000806040838503121561213d57600080fd5b600061214b85828601611f3e565b925050602061215c85828601611f53565b9150509250929050565b6000806040838503121561217957600080fd5b600061218785828601611f3e565b925050602061219885828601611fe6565b9150509250929050565b6000602082840312156121b457600080fd5b60006121c284828501611f68565b91505092915050565b6000602082840312156121dd57600080fd5b60006121eb84828501611f7d565b91505092915050565b60006020828403121561220657600080fd5b600082013567ffffffffffffffff81111561222057600080fd5b61222c84828501611fbc565b91505092915050565b60006020828403121561224757600080fd5b600061225584828501611fe6565b91505092915050565b612267816129cb565b82525050565b612276816129dd565b82525050565b6000612287826128fe565b6122918185612914565b93506122a1818560208601612a4e565b6122aa81612b71565b840191505092915050565b60006122c082612909565b6122ca8185612925565b93506122da818560208601612a4e565b6122e381612b71565b840191505092915050565b60006122f982612909565b6123038185612936565b9350612313818560208601612a4e565b80840191505092915050565b600061232c602b83612925565b915061233782612b82565b604082019050919050565b600061234f603283612925565b915061235a82612bd1565b604082019050919050565b6000612372601c83612925565b915061237d82612c20565b602082019050919050565b6000612395602483612925565b91506123a082612c49565b604082019050919050565b60006123b8601983612925565b91506123c382612c98565b602082019050919050565b60006123db602c83612925565b91506123e682612cc1565b604082019050919050565b60006123fe601e83612925565b915061240982612d10565b602082019050919050565b6000612421603883612925565b915061242c82612d39565b604082019050919050565b6000612444602a83612925565b915061244f82612d88565b604082019050919050565b6000612467602983612925565b915061247282612dd7565b604082019050919050565b600061248a602083612925565b915061249582612e26565b602082019050919050565b60006124ad602c83612925565b91506124b882612e4f565b604082019050919050565b60006124d0602983612925565b91506124db82612e9e565b604082019050919050565b60006124f3602f83612925565b91506124fe82612eed565b604082019050919050565b6000612516602183612925565b915061252182612f3c565b604082019050919050565b6000612539603183612925565b915061254482612f8b565b604082019050919050565b600061255c602c83612925565b915061256782612fda565b604082019050919050565b61257b81612a35565b82525050565b600061258d82846122ee565b915081905092915050565b60006020820190506125ad600083018461225e565b92915050565b60006080820190506125c8600083018761225e565b6125d5602083018661225e565b6125e26040830185612572565b81810360608301526125f4818461227c565b905095945050505050565b6000602082019050612614600083018461226d565b92915050565b6000602082019050818103600083015261263481846122b5565b905092915050565b600060208201905081810360008301526126558161231f565b9050919050565b6000602082019050818103600083015261267581612342565b9050919050565b6000602082019050818103600083015261269581612365565b9050919050565b600060208201905081810360008301526126b581612388565b9050919050565b600060208201905081810360008301526126d5816123ab565b9050919050565b600060208201905081810360008301526126f5816123ce565b9050919050565b60006020820190508181036000830152612715816123f1565b9050919050565b6000602082019050818103600083015261273581612414565b9050919050565b6000602082019050818103600083015261275581612437565b9050919050565b600060208201905081810360008301526127758161245a565b9050919050565b600060208201905081810360008301526127958161247d565b9050919050565b600060208201905081810360008301526127b5816124a0565b9050919050565b600060208201905081810360008301526127d5816124c3565b9050919050565b600060208201905081810360008301526127f5816124e6565b9050919050565b6000602082019050818103600083015261281581612509565b9050919050565b600060208201905081810360008301526128358161252c565b9050919050565b600060208201905081810360008301526128558161254f565b9050919050565b60006020820190506128716000830184612572565b92915050565b6000612881612892565b905061288d8282612ab3565b919050565b6000604051905090565b600067ffffffffffffffff8211156128b7576128b6612b42565b5b6128c082612b71565b9050602081019050919050565b600067ffffffffffffffff8211156128e8576128e7612b42565b5b6128f182612b71565b9050602081019050919050565b600081519050919050565b600081519050919050565b600082825260208201905092915050565b600082825260208201905092915050565b600081905092915050565b600061294c82612a35565b915061295783612a35565b9250827fffffffffffffffffffffffffffffffffffffffffffffffffffffffffffffffff0382111561298c5761298b612ae4565b5b828201905092915050565b60006129a282612a35565b91506129ad83612a35565b9250828210156129c0576129bf612ae4565b5b828203905092915050565b60006129d682612a15565b9050919050565b60008115159050919050565b60007fffffffff0000000000000000000000000000000000000000000000000000000082169050919050565b600073ffffffffffffffffffffffffffffffffffffffff82169050919050565b6000819050919050565b82818337600083830152505050565b60005b83811015612a6c578082015181840152602081019050612a51565b83811115612a7b576000848401525b50505050565b60006002820490506001821680612a9957607f821691505b60208210811415612aad57612aac612b13565b5b50919050565b612abc82612b71565b810181811067ffffffffffffffff82111715612adb57612ada612b42565b5b80604052505050565b7f4e487b7100000000000000000000000000000000000000000000000000000000600052601160045260246000fd5b7f4e487b7100000000000000000000000000000000000000000000000000000000600052602260045260246000fd5b7f4e487b7100000000000000000000000000000000000000000000000000000000600052604160045260246000fd5b6000601f19601f8301169050919050565b7f455243373231456e756d657261626c653a206f776e657220696e646578206f7560008201527f74206f6620626f756e6473000000000000000000000000000000000000000000602082015250565b7f4552433732313a207472616e7366657220746f206e6f6e20455243373231526560008201527f63656976657220696d706c656d656e7465720000000000000000000000000000602082015250565b7f4552433732313a20746f6b656e20616c7265616479206d696e74656400000000600082015250565b7f4552433732313a207472616e7366657220746f20746865207a65726f2061646460008201527f7265737300000000000000000000000000000000000000000000000000000000602082015250565b7f4552433732313a20617070726f766520746f2063616c6c657200000000000000600082015250565b7f4552433732313a206f70657261746f7220717565727920666f72206e6f6e657860008201527f697374656e7420746f6b656e0000000000000000000000000000000000000000602082015250565b7f54686520746f6b656e205552492073686f756c6420626520756e697175650000600082015250565b7f4552433732313a20617070726f76652063616c6c6572206973206e6f74206f7760008201527f6e6572206e6f7220617070726f76656420666f7220616c6c0000000000000000602082015250565b7f4552433732313a2062616c616e636520717565727920666f7220746865207a6560008201527f726f206164647265737300000000000000000000000000000000000000000000602082015250565b7f4552433732313a206f776e657220717565727920666f72206e6f6e657869737460008201527f656e7420746f6b656e0000000000000000000000000000000000000000000000602082015250565b7f4552433732313a206d696e7420746f20746865207a65726f2061646472657373600082015250565b7f4552433732313a20617070726f76656420717565727920666f72206e6f6e657860008201527f697374656e7420746f6b656e0000000000000000000000000000000000000000602082015250565b7f4552433732313a207472616e73666572206f6620746f6b656e2074686174206960008201527f73206e6f74206f776e0000000000000000000000000000000000000000000000602082015250565b7f4552433732314d657461646174613a2055524920717565727920666f72206e6f60008201527f6e6578697374656e7420746f6b656e0000000000000000000000000000000000602082015250565b7f4552433732313a20617070726f76616c20746f2063757272656e74206f776e6560008201527f7200000000000000000000000000000000000000000000000000000000000000602082015250565b7f4552433732313a207472616e736665722063616c6c6572206973206e6f74206f60008201527f776e6572206e6f7220617070726f766564000000000000000000000000000000602082015250565b7f455243373231456e756d657261626c653a20676c6f62616c20696e646578206f60008201527f7574206f6620626f756e64730000000000000000000000000000000000000000602082015250565b613032816129cb565b811461303d57600080fd5b50565b613049816129dd565b811461305457600080fd5b50565b613060816129e9565b811461306b57600080fd5b50565b61307781612a35565b811461308257600080fd5b5056fea264697066735822122066e4e89ce9db71d13c3261373c6c664244db7210335e9b699f302ecd20c861da64736f6c63430008040033",
  "devdoc": {
    "kind": "dev",
    "methods": {
      "approve(address,uint256)": {
        "details": "See {IERC721-approve}."
      },
      "balanceOf(address)": {
        "details": "See {IERC721-balanceOf}."
      },
      "getApproved(uint256)": {
        "details": "See {IERC721-getApproved}."
      },
      "isApprovedForAll(address,address)": {
        "details": "See {IERC721-isApprovedForAll}."
      },
      "name()": {
        "details": "See {IERC721Metadata-name}."
      },
      "ownerOf(uint256)": {
        "details": "See {IERC721-ownerOf}."
      },
      "safeTransferFrom(address,address,uint256)": {
        "details": "See {IERC721-safeTransferFrom}."
      },
      "safeTransferFrom(address,address,uint256,bytes)": {
        "details": "See {IERC721-safeTransferFrom}."
      },
      "setApprovalForAll(address,bool)": {
        "details": "See {IERC721-setApprovalForAll}."
      },
      "symbol()": {
        "details": "See {IERC721Metadata-symbol}."
      },
      "tokenByIndex(uint256)": {
        "details": "See {IERC721Enumerable-tokenByIndex}."
      },
      "tokenOfOwnerByIndex(address,uint256)": {
        "details": "See {IERC721Enumerable-tokenOfOwnerByIndex}."
      },
      "tokenURI(uint256)": {
        "details": "See {IERC721Metadata-tokenURI}."
      },
      "totalSupply()": {
        "details": "See {IERC721Enumerable-totalSupply}."
      },
      "transferFrom(address,address,uint256)": {
        "details": "See {IERC721-transferFrom}."
      }
    },
    "version": 1
  },
  "userdoc": {
    "kind": "user",
    "methods": {},
    "version": 1
  },
  "storageLayout": {
    "storage": [
      {
        "astId": 25,
        "contract": "contracts/MyNftCollection.sol:MyNftCollection",
        "label": "_name",
        "offset": 0,
        "slot": "0",
        "type": "t_string_storage"
      },
      {
        "astId": 27,
        "contract": "contracts/MyNftCollection.sol:MyNftCollection",
        "label": "_symbol",
        "offset": 0,
        "slot": "1",
        "type": "t_string_storage"
      },
      {
        "astId": 31,
        "contract": "contracts/MyNftCollection.sol:MyNftCollection",
        "label": "_owners",
        "offset": 0,
        "slot": "2",
        "type": "t_mapping(t_uint256,t_address)"
      },
      {
        "astId": 35,
        "contract": "contracts/MyNftCollection.sol:MyNftCollection",
        "label": "_balances",
        "offset": 0,
        "slot": "3",
        "type": "t_mapping(t_address,t_uint256)"
      },
      {
        "astId": 39,
        "contract": "contracts/MyNftCollection.sol:MyNftCollection",
        "label": "_tokenApprovals",
        "offset": 0,
        "slot": "4",
        "type": "t_mapping(t_uint256,t_address)"
      },
      {
        "astId": 45,
        "contract": "contracts/MyNftCollection.sol:MyNftCollection",
        "label": "_operatorApprovals",
        "offset": 0,
        "slot": "5",
        "type": "t_mapping(t_address,t_mapping(t_address,t_bool))"
      },
      {
        "astId": 979,
        "contract": "contracts/MyNftCollection.sol:MyNftCollection",
        "label": "_ownedTokens",
        "offset": 0,
        "slot": "6",
        "type": "t_mapping(t_address,t_mapping(t_uint256,t_uint256))"
      },
      {
        "astId": 983,
        "contract": "contracts/MyNftCollection.sol:MyNftCollection",
        "label": "_ownedTokensIndex",
        "offset": 0,
        "slot": "7",
        "type": "t_mapping(t_uint256,t_uint256)"
      },
      {
        "astId": 986,
        "contract": "contracts/MyNftCollection.sol:MyNftCollection",
        "label": "_allTokens",
        "offset": 0,
        "slot": "8",
        "type": "t_array(t_uint256)dyn_storage"
      },
      {
        "astId": 990,
        "contract": "contracts/MyNftCollection.sol:MyNftCollection",
        "label": "_allTokensIndex",
        "offset": 0,
        "slot": "9",
        "type": "t_mapping(t_uint256,t_uint256)"
      },
      {
        "astId": 1929,
        "contract": "contracts/MyNftCollection.sol:MyNftCollection",
        "label": "tokenURIs",
        "offset": 0,
        "slot": "10",
        "type": "t_array(t_string_storage)dyn_storage"
      },
      {
        "astId": 1933,
        "contract": "contracts/MyNftCollection.sol:MyNftCollection",
        "label": "_tokenURIExists",
        "offset": 0,
        "slot": "11",
        "type": "t_mapping(t_string_memory_ptr,t_bool)"
      },
      {
        "astId": 1937,
        "contract": "contracts/MyNftCollection.sol:MyNftCollection",
        "label": "_tokenIdToTokenURI",
        "offset": 0,
        "slot": "12",
        "type": "t_mapping(t_uint256,t_string_storage)"
      }
    ],
    "types": {
      "t_address": {
        "encoding": "inplace",
        "label": "address",
        "numberOfBytes": "20"
      },
      "t_array(t_string_storage)dyn_storage": {
        "base": "t_string_storage",
        "encoding": "dynamic_array",
        "label": "string[]",
        "numberOfBytes": "32"
      },
      "t_array(t_uint256)dyn_storage": {
        "base": "t_uint256",
        "encoding": "dynamic_array",
        "label": "uint256[]",
        "numberOfBytes": "32"
      },
      "t_bool": {
        "encoding": "inplace",
        "label": "bool",
        "numberOfBytes": "1"
      },
      "t_mapping(t_address,t_bool)": {
        "encoding": "mapping",
        "key": "t_address",
        "label": "mapping(address => bool)",
        "numberOfBytes": "32",
        "value": "t_bool"
      },
      "t_mapping(t_address,t_mapping(t_address,t_bool))": {
        "encoding": "mapping",
        "key": "t_address",
        "label": "mapping(address => mapping(address => bool))",
        "numberOfBytes": "32",
        "value": "t_mapping(t_address,t_bool)"
      },
      "t_mapping(t_address,t_mapping(t_uint256,t_uint256))": {
        "encoding": "mapping",
        "key": "t_address",
        "label": "mapping(address => mapping(uint256 => uint256))",
        "numberOfBytes": "32",
        "value": "t_mapping(t_uint256,t_uint256)"
      },
      "t_mapping(t_address,t_uint256)": {
        "encoding": "mapping",
        "key": "t_address",
        "label": "mapping(address => uint256)",
        "numberOfBytes": "32",
        "value": "t_uint256"
      },
      "t_mapping(t_string_memory_ptr,t_bool)": {
        "encoding": "mapping",
        "key": "t_string_memory_ptr",
        "label": "mapping(string => bool)",
        "numberOfBytes": "32",
        "value": "t_bool"
      },
      "t_mapping(t_uint256,t_address)": {
        "encoding": "mapping",
        "key": "t_uint256",
        "label": "mapping(uint256 => address)",
        "numberOfBytes": "32",
        "value": "t_address"
      },
      "t_mapping(t_uint256,t_string_storage)": {
        "encoding": "mapping",
        "key": "t_uint256",
        "label": "mapping(uint256 => string)",
        "numberOfBytes": "32",
        "value": "t_string_storage"
      },
      "t_mapping(t_uint256,t_uint256)": {
        "encoding": "mapping",
        "key": "t_uint256",
        "label": "mapping(uint256 => uint256)",
        "numberOfBytes": "32",
        "value": "t_uint256"
      },
      "t_string_memory_ptr": {
        "encoding": "bytes",
        "label": "string",
        "numberOfBytes": "32"
      },
      "t_string_storage": {
        "encoding": "bytes",
        "label": "string",
        "numberOfBytes": "32"
      },
      "t_uint256": {
        "encoding": "inplace",
        "label": "uint256",
        "numberOfBytes": "32"
      }
    }
  }
}